{
    "contractName": "RockPaperScissors",
    "abi": [
        {
            "inputs": [],
            "name": "BET_MIN",
            "outputs": [
                {
                    "internalType": "uint256",
                    "name": "",
                    "type": "uint256"
                }
            ],
            "stateMutability": "view",
            "type": "function"
        },
        {
            "inputs": [],
            "name": "REVEAL_TIMEOUT",
            "outputs": [
                {
                    "internalType": "uint256",
                    "name": "",
                    "type": "uint256"
                }
            ],
            "stateMutability": "view",
            "type": "function"
        },
        {
            "inputs": [],
            "name": "bothPlayed",
            "outputs": [
                {
                    "internalType": "bool",
                    "name": "",
                    "type": "bool"
                }
            ],
            "stateMutability": "view",
            "type": "function"
        },
        {
            "inputs": [],
            "name": "bothRevealed",
            "outputs": [
                {
                    "internalType": "bool",
                    "name": "",
                    "type": "bool"
                }
            ],
            "stateMutability": "view",
            "type": "function"
        },
        {
            "inputs": [],
            "name": "checkTimeout_register",
            "outputs": [
                {
                    "internalType": "string",
                    "name": "",
                    "type": "string"
                }
            ],
            "stateMutability": "nonpayable",
            "type": "function"
        },
        {
            "inputs": [],
            "name": "getContractBalance",
            "outputs": [
                {
                    "internalType": "uint256",
                    "name": "",
                    "type": "uint256"
                }
            ],
            "stateMutability": "view",
            "type": "function"
        },
        {
            "inputs": [],
            "name": "getFinalOutput",
            "outputs": [
                {
                    "internalType": "string",
                    "name": "",
                    "type": "string"
                }
            ],
            "stateMutability": "view",
            "type": "function"
        },
        {
            "inputs": [],
            "name": "getOutcome",
            "outputs": [
                {
                    "internalType": "enum RockPaperScissors.Outcomes",
                    "name": "",
                    "type": "uint8"
                }
            ],
            "stateMutability": "nonpayable",
            "type": "function"
        },
        {
            "inputs": [],
            "name": "getPlayOutput",
            "outputs": [
                {
                    "internalType": "string",
                    "name": "",
                    "type": "string"
                }
            ],
            "stateMutability": "view",
            "type": "function"
        },
        {
            "inputs": [],
            "name": "getRegisterValue",
            "outputs": [
                {
                    "internalType": "string",
                    "name": "",
                    "type": "string"
                }
            ],
            "stateMutability": "view",
            "type": "function"
        },
        {
            "inputs": [],
            "name": "getRevealOutput",
            "outputs": [
                {
                    "internalType": "string",
                    "name": "",
                    "type": "string"
                }
            ],
            "stateMutability": "view",
            "type": "function"
        },
        {
            "inputs": [],
            "name": "initialBet",
            "outputs": [
                {
                    "internalType": "uint256",
                    "name": "",
                    "type": "uint256"
                }
            ],
            "stateMutability": "view",
            "type": "function"
        },
        {
            "inputs": [
                {
                    "internalType": "uint256",
                    "name": "",
                    "type": "uint256"
                }
            ],
            "name": "listOfPlayers",
            "outputs": [
                {
                    "internalType": "address",
                    "name": "MyAddr",
                    "type": "address"
                },
                {
                    "internalType": "address",
                    "name": "OppAddr",
                    "type": "address"
                },
                {
                    "internalType": "uint256",
                    "name": "bet",
                    "type": "uint256"
                },
                {
                    "internalType": "bytes32",
                    "name": "encryptedMove",
                    "type": "bytes32"
                },
                {
                    "internalType": "enum RockPaperScissors.Moves",
                    "name": "movePlayer",
                    "type": "uint8"
                },
                {
                    "internalType": "uint256",
                    "name": "timeout_register",
                    "type": "uint256"
                },
                {
                    "internalType": "uint256",
                    "name": "timeout_play",
                    "type": "uint256"
                },
                {
                    "internalType": "uint256",
                    "name": "timeout_reveal",
                    "type": "uint256"
                }
            ],
            "stateMutability": "view",
            "type": "function"
        },
        {
            "inputs": [],
            "name": "opponentJoined",
            "outputs": [
                {
                    "internalType": "bool",
                    "name": "",
                    "type": "bool"
                }
            ],
            "stateMutability": "view",
            "type": "function"
        },
        {
            "inputs": [
                {
                    "internalType": "bytes32",
                    "name": "encrMove",
                    "type": "bytes32"
                }
            ],
            "name": "play",
            "outputs": [
                {
                    "internalType": "bool",
                    "name": "",
                    "type": "bool"
                }
            ],
            "stateMutability": "nonpayable",
            "type": "function"
        },
        {
            "inputs": [],
            "name": "register",
            "outputs": [
                {
                    "internalType": "uint256",
                    "name": "",
                    "type": "uint256"
                }
            ],
            "stateMutability": "payable",
            "type": "function"
        },
        {
            "inputs": [
                {
                    "internalType": "string",
                    "name": "clearMove",
                    "type": "string"
                }
            ],
            "name": "reveal",
            "outputs": [
                {
                    "internalType": "enum RockPaperScissors.Moves",
                    "name": "",
                    "type": "uint8"
                }
            ],
            "stateMutability": "nonpayable",
            "type": "function"
        },
        {
            "inputs": [],
            "name": "revealTimeLeft",
            "outputs": [
                {
                    "internalType": "int256",
                    "name": "",
                    "type": "int256"
                }
            ],
            "stateMutability": "view",
            "type": "function"
        },
        {
            "inputs": [],
            "name": "timeout",
            "outputs": [
                {
                    "internalType": "uint256",
                    "name": "",
                    "type": "uint256"
                }
            ],
            "stateMutability": "view",
            "type": "function"
        },
        {
            "inputs": [],
            "name": "whoAmI",
            "outputs": [
                {
                    "internalType": "uint256",
                    "name": "",
                    "type": "uint256"
                }
            ],
            "stateMutability": "view",
            "type": "function"
        }
    ],
    "bytecode": "608060405261025860025534801561001657600080fd5b506132ce806100266000396000f3fe60806040526004361061011f5760003560e01c80636f9fb98a116100a0578063c7a1865b11610064578063c7a1865b146102c2578063d347c04c146102e2578063da46cc2d146102f7578063da91254c1461030c578063ee198ce01461032157600080fd5b80636f9fb98a1461025857806370dea79a1461026d5780637e7e4b4714610283578063807c8504146102985780639d245719146102ad57600080fd5b80633f061259116100e75780633f061259146101a857806343445ca8146101dc5780634c2612471461020157806351dcb1c31461022e5780635afe0dd51461024357600080fd5b80631aa3a008146101245780631d73c64c1461013f5780632626ab08146101555780632fc75113146101705780633d6ae3a714610192575b600080fd5b61012c610336565b6040519081526020015b60405180910390f35b34801561014b57600080fd5b5061012c60005481565b34801561016157600080fd5b5061012c662386f26fc1000081565b34801561017c57600080fd5b50610185610925565b6040516101369190612f55565b34801561019e57600080fd5b5061012c61025881565b3480156101b457600080fd5b506101c86101c3366004612f6f565b610e7e565b604051610136989796959493929190612fbc565b3480156101e857600080fd5b506101f1610ee4565b6040519015158152602001610136565b34801561020d57600080fd5b5061022161021c366004613027565b611192565b60405161013691906130d8565b34801561023a57600080fd5b5061012c61172a565b34801561024f57600080fd5b506101f161175d565b34801561026457600080fd5b5061012c611809565b34801561027957600080fd5b5061012c60025481565b34801561028f57600080fd5b50610221611a3e565b3480156102a457600080fd5b506101f1612037565b3480156102b957600080fd5b50610185612396565b3480156102ce57600080fd5b506101f16102dd366004612f6f565b6123eb565b3480156102ee57600080fd5b506101856124c6565b34801561030357600080fd5b506101856125d4565b34801561031857600080fd5b5061012c6126fc565b34801561032d57600080fd5b506101856127f8565b600554600090610348906002906130eb565b60000361036857662386f26fc1000034101561036357600080fd5b6103bb565b600554662386f26fc1000034108015906103b05750600561038a600183613123565b8154811061039a5761039a61313c565b9060005260206000209060080201600201543410155b6103b957600080fd5b505b6005546103c96002826130eb565b156104105760056103db600183613123565b815481106103eb576103eb61313c565b60009182526020909120600890910201546001600160a01b0316330361041057600080fd5b61044060405180604001604052806007815260200166125b9a5d1a585b60ca1b81525061043b611809565b61287a565b604080516101008101825233815260006020820181815234938301938452606083018281526080840183815260a0850184905260c0850184905260e08501849052600580546001808201835591909552855160089095027f036b6384b5eca791c62761152d0c79bb0604c104a5fb6f4eb0703f3154bb3db0810180546001600160a01b039788166001600160a01b031991821617825595517f036b6384b5eca791c62761152d0c79bb0604c104a5fb6f4eb0703f3154bb3db1830180549190981696169590951790955595517f036b6384b5eca791c62761152d0c79bb0604c104a5fb6f4eb0703f3154bb3db285015590517f036b6384b5eca791c62761152d0c79bb0604c104a5fb6f4eb0703f3154bb3db3840155517f036b6384b5eca791c62761152d0c79bb0604c104a5fb6f4eb0703f3154bb3db4909201805493949193909160ff199091169083600381111561059c5761059c612f88565b021790555060a0820151816005015560c0820151816006015560e0820151816007015550506105cf6005805490506128c3565b6005546105de906002906130eb565b6000036108e257600580549033906105f7600284613123565b815481106106075761060761313c565b6000918252602090912060089091020160010180546001600160a01b0319166001600160a01b03929092169190911790556005610645600283613123565b815481106106555761065561313c565b60009182526020909120600890910201546001600160a01b0316600561067c600184613123565b8154811061068c5761068c61313c565b60009182526020909120600890910201600190810180546001600160a01b0319166001600160a01b0393909316929092179091556005805442926106cf91613123565b815481106106df576106df61313c565b9060005260206000209060080201600501819055506002546005600260058054905061070b9190613123565b8154811061071b5761071b61313c565b906000526020600020906008020160050154600560016005805490506107419190613123565b815481106107515761075161313c565b90600052602060002090600802016005015461076d9190613123565b11156108d45760058054600091829161078890600190613123565b815481106107985761079861313c565b6000918252602090912060089091020154600580546001600160a01b039092169350906107c790600290613123565b815481106107d7576107d761313c565b6000918252602090912060089091020154600580546001600160a01b039283169350918416916108fc919061080e90600190613123565b8154811061081e5761081e61313c565b9060005260206000209060080201600201549081150290604051600060405180830381858888f1935050505015801561085b573d6000803e3d6000fd5b50600580546001600160a01b038316916108fc9161087b90600290613123565b8154811061088b5761088b61313c565b9060005260206000209060080201600201549081150290604051600060405180830381858888f193505050501580156108c8573d6000803e3d6000fd5b506108d161290b565b50505b506002600981905591505090565b600580544291906108f590600190613123565b815481106109055761090561313c565b600091825260209091206008909102016005015550506001600981905590565b6060600080600080806000805b6005548110156109ef57336001600160a01b0316600582815481106109595761095961313c565b60009182526020909120600890910201546001600160a01b0316036109dd576005818154811061098b5761098b61313c565b906000526020600020906008020160050154965080935060019150600581815481106109b9576109b961313c565b60009182526020909120600160089092020101546001600160a01b031694506109ef565b806109e781613152565b915050610932565b50801515600003610a305760405180604001604052806012815260200171526567697374657220796f75722067616d6560701b815250965050505050505090565b6001600160a01b03841615610c6b5760005b600554811015610ac957846001600160a01b031660058281548110610a6957610a6961313c565b60009182526020909120600890910201546001600160a01b031603610ab75780925060058181548110610a9e57610a9e61313c565b9060005260206000209060080201600501549550610ac9565b80610ac181613152565b915050610a42565b506014610ad68787613123565b1115610c365760008060058581548110610af257610af261313c565b6000918252602090912060089091020154600580546001600160a01b0390921693509085908110610b2557610b2561313c565b906000526020600020906008020160000160009054906101000a90046001600160a01b03169050816001600160a01b03166108fc60058781548110610b6c57610b6c61313c565b9060005260206000209060080201600201549081150290604051600060405180830381858888f19350505050158015610ba9573d6000803e3d6000fd5b50806001600160a01b03166108fc60058681548110610bca57610bca61313c565b9060005260206000209060080201600201549081150290604051600060405180830381858888f19350505050158015610c07573d6000803e3d6000fd5b50610c1061290b565b6040518060600160405280602f81526020016131d6602f91399850505050505050505090565b60405180604001604052806011815260200170151a195c9949dcc81d1a5b59481b19599d607a1b815250965050505050505090565b6014610c778742613123565b1115610dcd57600060058481548110610c9257610c9261313c565b6000918252602090912060089091020154600580546001600160a01b039092169250610ce79186908110610cc857610cc861313c565b60009182526020909120600890910201546001600160a01b0316612aff565b610d11604051806040016040528060068152602001654265666f726560d01b81525061043b611809565b610d1a81612aff565b610d488160058681548110610d3157610d3161313c565b906000526020600020906008020160020154612b47565b610d716040518060400160405280600581526020016420b33a32b960d91b81525061043b611809565b610da06040518060400160405280600e81526020016d52657475726e6564206d6f6e657960901b815250612b7d565b610da861290b565b60405180606001604052806036815260200161322c6036913997505050505050505090565b610e01604051806040016040528060138152602001720213637b1b5903a34b6b2b9ba30b6b81034b99606d1b815250612b7d565b610e0a426128c3565b610e486040518060400160405280601b81526020017f54696d6520647572696e6720726567697374726174696f6e2069730000000000815250612b7d565b610e51866128c3565b60405180604001604052806009815260200168151a5b59481b19599d60ba1b815250965050505050505090565b60058181548110610e8e57600080fd5b6000918252602090912060089091020180546001820154600283015460038401546004850154600586015460068701546007909701546001600160a01b03968716985094909516959294919360ff909116929088565b60008080805b60055481101561100657600060058281548110610f0957610f0961313c565b60009182526020918290206040805161010081018252600890930290910180546001600160a01b0390811684526001820154169383019390935260028301549082015260038083015460608301526004830154919291608084019160ff90911690811115610f7957610f79612f88565b6003811115610f8a57610f8a612f88565b8152600582015460208201526006820154604082015260079091015460609091015280519091506001600160a01b03163303610ff3576020810151935060019250600081608001516003811115610fe357610fe3612f88565b03610ff357600094505050505090565b5080610ffe81613152565b915050610eea565b5080151560000361104e57611045604051806040016040528060138152602001723cb7ba903234b2373a103932b3b4b9ba32b91960691b815250612b7d565b60009250505090565b6000805b600554811015611173576000600582815481106110715761107161313c565b60009182526020918290206040805161010081018252600890930290910180546001600160a01b0390811684526001820154169383019390935260028301549082015260038083015460608301526004830154919291608084019160ff909116908111156110e1576110e1612f88565b60038111156110f2576110f2612f88565b81526020016005820154815260200160068201548152602001600782015481525050905080600001516001600160a01b0316856001600160a01b031603611160576001925060008160800151600381111561114f5761114f612f88565b036111605760009550505050505090565b508061116b81613152565b915050611052565b50801515600003611188576000935050505090565b6001935050505090565b600080808080805b600554811015611328576000600582815481106111b9576111b961313c565b60009182526020918290206040805161010081018252600890930290910180546001600160a01b0390811684526001820154169383019390935260028301549082015260038083015460608301526004830154919291608084019160ff9091169081111561122957611229612f88565b600381111561123a5761123a612f88565b815260200160058201548152602001600682015481526020016007820154815250509050336001600160a01b031681600001516001600160a01b031603611315576005828154811061128e5761128e61313c565b6000918252602090912060089091020154600580546001600160a01b03909216975090839081106112c1576112c161313c565b906000526020600020906008020160010160009054906101000a90046001600160a01b03169450600582815481106112fb576112fb61313c565b906000526020600020906008020160030154935050611328565b508061132081613152565b91505061119a565b5060005b60055481101561144d5760006005828154811061134b5761134b61313c565b60009182526020918290206040805161010081018252600890930290910180546001600160a01b0390811684526001820154169383019390935260028301549082015260038083015460608301526004830154919291608084019160ff909116908111156113bb576113bb612f88565b60038111156113cc576113cc612f88565b815260200160058201548152602001600682015481526020016007820154815250509050846001600160a01b031681600001516001600160a01b03160361143a57600582815481106114205761142061313c565b90600052602060002090600802016003015492505061144d565b508061144581613152565b91505061132c565b50811580159061145c57508015155b61146557600080fd5b600061146f612bc0565b9050806127101461171057600060028860405160200161148f919061316b565b60408051601f19818403018152908290526114a99161316b565b602060405180830381855afa1580156114c6573d6000803e3d6000fd5b5050506040513d601f19601f820116820180604052508101906114e99190613187565b905060006114f689612cbe565b600381111561150757611507612f88565b9050600081600381111561151d5761151d612f88565b03611539575050600a805461ff00191690555060009450611721565b60005b6005548110156116df5760006005828154811061155b5761155b61313c565b60009182526020918290206040805161010081018252600890930290910180546001600160a01b0390811684526001820154169383019390935260028301549082015260038083015460608301526004830154919291608084019160ff909116908111156115cb576115cb612f88565b60038111156115dc576115dc612f88565b815260200160058201548152602001600682015481526020016007820154815250509050336001600160a01b031681600001516001600160a01b0316036116cc57838160600151036116c657826005838154811061163c5761163c61313c565b60009182526020909120600460089092020101805460ff1916600183600381111561166957611669612f88565b02179055506116ac6040518060400160405280601c81526020017f776f726b696e6720696e2072657665616c2d7375636365737366756c00000000815250612b7d565b6116c68360038111156116c1576116c1612f88565b6128c3565b506116df565b50806116d781613152565b91505061153c565b50600a805482919061ff00191661010083600381111561170157611701612f88565b02179055509650611721915050565b50600a805461ff0019169055600094505b50505050919050565b6000600154600014611756574261025860015461174791906131a0565b6117519190613123565b905090565b5061025890565b6000805b60055481101561180157336001600160a01b0316600582815481106117885761178861313c565b60009182526020909120600890910201546001600160a01b0316036117ef5760006001600160a01b0316600582815481106117c5576117c561313c565b60009182526020909120600160089092020101546001600160a01b0316146117ef57600191505090565b806117f981613152565b915050611761565b506000905090565b60008080805b60055481101561191d5760006005828154811061182e5761182e61313c565b60009182526020918290206040805161010081018252600890930290910180546001600160a01b0390811684526001820154169383019390935260028301549082015260038083015460608301526004830154919291608084019160ff9091169081111561189e5761189e612f88565b60038111156118af576118af612f88565b815260200160058201548152602001600682015481526020016007820154815250509050336001600160a01b031681600001516001600160a01b03160361190a578060200151925080604001518461190791906131a0565b93505b508061191581613152565b91505061180f565b506001600160a01b03811615611a385760005b600554811015611a365760006005828154811061194f5761194f61313c565b60009182526020918290206040805161010081018252600890930290910180546001600160a01b0390811684526001820154169383019390935260028301549082015260038083015460608301526004830154919291608084019160ff909116908111156119bf576119bf612f88565b60038111156119d0576119d0612f88565b815260200160058201548152602001600682015481526020016007820154815250509050826001600160a01b031681600001516001600160a01b031603611a23576040810151611a2090856131a0565b93505b5080611a2e81613152565b915050611930565b505b50919050565b600080808080805b600554811015611b6857600060058281548110611a6557611a6561313c565b60009182526020918290206040805161010081018252600890930290910180546001600160a01b0390811684526001820154169383019390935260028301549082015260038083015460608301526004830154919291608084019160ff90911690811115611ad557611ad5612f88565b6003811115611ae657611ae6612f88565b815260200160058201548152602001600682015481526020016007820154815250509050336001600160a01b031681600001516001600160a01b031603611b555780516020820151608083015191975095509350611b4f8460038111156116c1576116c1612f88565b50611b68565b5080611b6081613152565b915050611a46565b5060005b600554811015611c6b57600060058281548110611b8b57611b8b61313c565b60009182526020918290206040805161010081018252600890930290910180546001600160a01b0390811684526001820154169383019390935260028301549082015260038083015460608301526004830154919291608084019160ff90911690811115611bfb57611bfb612f88565b6003811115611c0c57611c0c612f88565b815260200160058201548152602001600682015481526020016007820154815250509050846001600160a01b031681600001516001600160a01b031603611c5857608001519150611c6b565b5080611c6381613152565b915050611b6c565b506000826003811115611c8057611c80612f88565b14158015611ca057506000816003811115611c9d57611c9d612f88565b14155b611ca957600080fd5b6000808080808080805b600554811015611dc257600060058281548110611cd257611cd261313c565b60009182526020918290206040805161010081018252600890930290910180546001600160a01b0390811684526001820154169383019390935260028301549082015260038083015460608301526004830154919291608084019160ff90911690811115611d4257611d42612f88565b6003811115611d5357611d53612f88565b815260200160058201548152602001600682015481526020016007820154815250509050336001600160a01b031681600001516001600160a01b031603611daf5780516020820151608090920151995096509450925082611dc2565b5080611dba81613152565b915050611cb3565b5060005b600554811015611ec857600060058281548110611de557611de561313c565b60009182526020918290206040805161010081018252600890930290910180546001600160a01b0390811684526001820154169383019390935260028301549082015260038083015460608301526004830154919291608084019160ff90911690811115611e5557611e55612f88565b6003811115611e6657611e66612f88565b815260200160058201548152602001600682015481526020016007820154815250509050856001600160a01b031681600001516001600160a01b031603611eb557608001519650915081611ec8565b5080611ec081613152565b915050611dc6565b50856003811115611edb57611edb612f88565b876003811115611eed57611eed612f88565b03611efa57506003611fe6565b6001876003811115611f0e57611f0e612f88565b148015611f2c57506003866003811115611f2a57611f2a612f88565b145b80611f6457506002876003811115611f4657611f46612f88565b148015611f6457506001866003811115611f6257611f62612f88565b145b80611f9c57506003876003811115611f7e57611f7e612f88565b148015611f9c57506002866003811115611f9a57611f9a612f88565b145b80611fd557506000876003811115611fb657611fb6612f88565b14158015611fd557506000866003811115611fd357611fd3612f88565b145b15611fe257506001611fe6565b5060025b8484611ff58282878787612d3f565b611ffd61290b565b600a805484919062ff000019166201000083600381111561202057612020612f88565b0217905550919c5050505050505050505050505090565b60008080805b6005548110156121925760006005828154811061205c5761205c61313c565b60009182526020918290206040805161010081018252600890930290910180546001600160a01b0390811684526001820154169383019390935260028301549082015260038083015460608301526004830154919291608084019160ff909116908111156120cc576120cc612f88565b60038111156120dd576120dd612f88565b81526020016005820154815260200160068201548152602001600782015481525050905061210e8160000151612aff565b61211b8160200151612aff565b80516001600160a01b0316330361217f57602081015160608201519094506001935060000361217f576121746040518060400160405280600f81526020016e796f75206469646e7420706c61793160881b815250612b7d565b600094505050505090565b508061218a81613152565b91505061203d565b508015156000036121d157611045604051806040016040528060138152602001723cb7ba903234b2373a103932b3b4b9ba32b91960691b815250612b7d565b6000805b60055481101561231a576000600582815481106121f4576121f461313c565b60009182526020918290206040805161010081018252600890930290910180546001600160a01b0390811684526001820154169383019390935260028301549082015260038083015460608301526004830154919291608084019160ff9091169081111561226457612264612f88565b600381111561227557612275612f88565b81526020016005820154815260200160068201548152602001600782015481525050905080600001516001600160a01b0316856001600160a01b03160361230757606081015160019350600003612307576122fb604051806040016040528060148152602001736f70706f6e656e74206469646e7420706c61793360601b815250612b7d565b60009550505050505090565b508061231281613152565b9150506121d5565b5080151560000361236d576123636040518060400160405280601881526020017f6f70706f6e656e74206469646e74207265676973746572340000000000000000815250612b7d565b6000935050505090565b61118860405180604001604052806008815260200167537563636573733560c01b815250612b7d565b60606009546001036123c05760405180606001604052806037815260200161326260379139905090565b6009546002036123e85760405180606001604052806027815260200161320560279139905090565b90565b6000806123f6612bc0565b905080612710146124b45760006001600160a01b03166005828154811061241f5761241f61313c565b60009182526020909120600160089092020101546001600160a01b0316148015906124705750600581815481106124585761245861313c565b9060005260206000209060080201600301546000801b145b156124b45782600582815481106124895761248961313c565b60009182526020909120600360089092020101555050600a805460ff19166001908117909155919050565b5050600a805460ff1916905550600090565b600a54606090610100900460ff1660038111156124e5576124e5612f88565b60000361250e5750604080518082019091526007815266125b9d985b1a5960ca1b602082015290565b600a54610100900460ff16600381111561252a5761252a612f88565b60010361255a575060408051808201909152600e81526d52657665616c65643a20526f636b60901b602082015290565b600a54610100900460ff16600381111561257657612576612f88565b6002036125a7575060408051808201909152600f81526e2932bb32b0b632b21d102830b832b960891b602082015290565b5060408051808201909152601281527152657665616c65643a2053636973736f727360701b602082015290565b600a5460609062010000900460ff1660038111156125f4576125f4612f88565b60000361261d5750604080518082019091526007815266125b9d985b1a5960ca1b602082015290565b600a5462010000900460ff16600381111561263a5761263a612f88565b600103612668575060408051808201909152600c81526b283630bcb2b91018903bb7b760a11b602082015290565b600a5462010000900460ff16600381111561268557612685612f88565b6002036126b3575060408051808201909152600c81526b283630bcb2b91019103bb7b760a11b602082015290565b600a5462010000900460ff1660038111156126d0576126d0612f88565b6003036123e8575060408051808201909152600a81526923b0b6b290223930bbb760b11b602082015290565b6000805b6005548110156127ef5760006005828154811061271f5761271f61313c565b60009182526020918290206040805161010081018252600890930290910180546001600160a01b0390811684526001820154169383019390935260028301549082015260038083015460608301526004830154919291608084019160ff9091169081111561278f5761278f612f88565b60038111156127a0576127a0612f88565b8152600582015460208201526006820154604082015260079091015460609091015280519091506001600160a01b031633036127dc5750919050565b50806127e781613152565b915050612700565b50612710905090565b600a5460609060ff161515600103612842575060408051808201909152601c81527f5375636365737366756c6c792073746f72656420746865206d6f766500000000602082015290565b5060408051808201909152601d81527f4661696c656420746f2073746f72652074686520706c6179206d6f7665000000602082015290565b6128bf82826040516024016128909291906131b3565b60408051601f198184030181529190526020810180516001600160e01b03166309710a9d60e41b179052612ee4565b5050565b612908816040516024016128d991815260200190565b60408051601f198184030181529190526020810180516001600160e01b031663f5b1bba960e01b179052612ee4565b50565b6000806000805b60055481101561299c576005818154811061292f5761292f61313c565b60009182526020909120600890910201546001600160a01b0316330361298a57600581815481106129625761296261313c565b60009182526020909120600160089092020101549093506001600160a01b031690508261299c565b8061299481613152565b915050612912565b506001600160a01b03811615612ae75760005b600554811015612a0a57600581815481106129cc576129cc61313c565b60009182526020909120600890910201546001600160a01b03908116908316036129f857809250612a0a565b80612a0281613152565b9150506129af565b5060058381548110612a1e57612a1e61313c565b60009182526020822060089091020180546001600160a01b031990811682556001820180549091169055600281018290556003810182905560048101805460ff19169055600580820183905560068201839055600790910191909155805483908110612a8c57612a8c61313c565b60009182526020822060089091020180546001600160a01b031990811682556001820180549091169055600281018290556003810182905560048101805460ff19169055600581018290556006810182905560070155505050565b60058381548110612a8c57612a8c61313c565b505050565b6040516001600160a01b03821660248201526129089060440160408051601f198184030181529190526020810180516001600160e01b031663161765e160e11b179052612ee4565b6040516001600160a01b0383169082156108fc029083906000818181858888f19350505050158015612afa573d6000803e3d6000fd5b61290881604051602401612b919190612f55565b60408051601f198184030181529190526020810180516001600160e01b031663104c13eb60e21b179052612ee4565b6000805b6005548110156127ef57600060058281548110612be357612be361313c565b60009182526020918290206040805161010081018252600890930290910180546001600160a01b0390811684526001820154169383019390935260028301549082015260038083015460608301526004830154919291608084019160ff90911690811115612c5357612c53612f88565b6003811115612c6457612c64612f88565b815260200160058201548152602001600682015481526020016007820154815250509050336001600160a01b031681600001516001600160a01b031603612cab5750919050565b5080612cb681613152565b915050612bc4565b60008082600081518110612cd457612cd461313c565b01602001516001600160f81b0319169050603160f81b819003612cfa5750600192915050565b6001600160f81b03198116601960f91b03612d185750600292915050565b6001600160f81b03198116603360f81b03612d365750600392915050565b50600092915050565b6001816003811115612d5357612d53612f88565b03612de757846001600160a01b03166108fc60058481548110612d7857612d7861313c565b90600052602060002090600802016002015460058681548110612d9d57612d9d61313c565b906000526020600020906008020160020154612db991906131a0565b6040518115909202916000818181858888f19350505050158015612de1573d6000803e3d6000fd5b50612edd565b6002816003811115612dfb57612dfb612f88565b03612e2057836001600160a01b03166108fc60058481548110612d7857612d7861313c565b846001600160a01b03166108fc60058581548110612e4057612e4061313c565b9060005260206000209060080201600201549081150290604051600060405180830381858888f19350505050158015612e7d573d6000803e3d6000fd5b50836001600160a01b03166108fc60058481548110612e9e57612e9e61313c565b9060005260206000209060080201600201549081150290604051600060405180830381858888f19350505050158015612edb573d6000803e3d6000fd5b505b5050505050565b80516a636f6e736f6c652e6c6f67602083016000808483855afa5050505050565b60005b83811015612f20578181015183820152602001612f08565b50506000910152565b60008151808452612f41816020860160208601612f05565b601f01601f19169290920160200192915050565b602081526000612f686020830184612f29565b9392505050565b600060208284031215612f8157600080fd5b5035919050565b634e487b7160e01b600052602160045260246000fd5b6004811061290857634e487b7160e01b600052602160045260246000fd5b6001600160a01b0389811682528816602082015260408101879052606081018690526101008101612fec86612f9e565b8560808301528460a08301528360c08301528260e08301529998505050505050505050565b634e487b7160e01b600052604160045260246000fd5b60006020828403121561303957600080fd5b813567ffffffffffffffff8082111561305157600080fd5b818401915084601f83011261306557600080fd5b81358181111561307757613077613011565b604051601f8201601f19908116603f0116810190838211818310171561309f5761309f613011565b816040528281528760208487010111156130b857600080fd5b826020860160208301376000928101602001929092525095945050505050565b602081016130e583612f9e565b91905290565b60008261310857634e487b7160e01b600052601260045260246000fd5b500690565b634e487b7160e01b600052601160045260246000fd5b818103818111156131365761313661310d565b92915050565b634e487b7160e01b600052603260045260246000fd5b6000600182016131645761316461310d565b5060010190565b6000825161317d818460208701612f05565b9190910192915050565b60006020828403121561319957600080fd5b5051919050565b808201808211156131365761313661310d565b6040815260006131c66040830185612f29565b9050826020830152939250505056fe54696d656f7574202d2072657475726e6564207468652062616c616e63657320746f20796f7572206163636f756e74526567697374726174696f6e207375636365737366756c2e20506c6179207468652067616d652e54696d6564206f75742c206e6f206f70706f6e656e74206d6174636865642e205265747572696e6720796f7572206465706f7369742e526567697374726174696f6e205375636365737366756c2e205761697420666f7220746865206f70706f6e656e7420746f206a6f696e2ea2646970667358221220c834a335a2ba0347ecf7679df5749d4f369da288b58067320163f1a4c9dc680764736f6c63430008130033",
    "sourcePath": "/home/vboxuser/git/rps/src/rpstest.sol",
    "compiler": {
        "name": "solc",
        "version": "0.8.19+commit.7dd6d404"
    },
    "functionHashes": {
        "BET_MIN()": "2626ab08",
        "REVEAL_TIMEOUT()": "3d6ae3a7",
        "bothPlayed()": "807c8504",
        "bothRevealed()": "43445ca8",
        "checkTimeout_register()": "2fc75113",
        "getContractBalance()": "6f9fb98a",
        "getFinalOutput()": "da46cc2d",
        "getOutcome()": "7e7e4b47",
        "getPlayOutput()": "ee198ce0",
        "getRegisterValue()": "9d245719",
        "getRevealOutput()": "d347c04c",
        "initialBet()": "1d73c64c",
        "listOfPlayers(uint256)": "3f061259",
        "opponentJoined()": "5afe0dd5",
        "play(bytes32)": "c7a1865b",
        "register()": "1aa3a008",
        "reveal(string)": "4c261247",
        "revealTimeLeft()": "51dcb1c3",
        "timeout()": "70dea79a",
        "whoAmI()": "da91254c"
    },
    "gasEstimates": {
        "creation": {
            "codeDepositCost": "2601200",
            "executionCost": "24922",
            "totalCost": "2626122"
        },
        "external": {
            "BET_MIN()": "252",
            "REVEAL_TIMEOUT()": "296",
            "bothPlayed()": "infinite",
            "bothRevealed()": "infinite",
            "checkTimeout_register()": "infinite",
            "getContractBalance()": "infinite",
            "getFinalOutput()": "infinite",
            "getOutcome()": "infinite",
            "getPlayOutput()": "infinite",
            "getRegisterValue()": "infinite",
            "getRevealOutput()": "infinite",
            "initialBet()": "2330",
            "listOfPlayers(uint256)": "19724",
            "opponentJoined()": "infinite",
            "play(bytes32)": "infinite",
            "register()": "infinite",
            "reveal(string)": "infinite",
            "revealTimeLeft()": "infinite",
            "timeout()": "2329",
            "whoAmI()": "infinite"
        },
        "internal": {
            "getFirstChar(string memory)": "infinite",
            "isRegistered()": "infinite",
            "pay(address payable,address payable,uint256,uint256,enum RockPaperScissors.Outcomes)": "infinite",
            "refund(address payable,uint256)": "infinite",
            "reset()": "infinite"
        }
    }
}