{
  "abi": [
    {
      "inputs": [],
      "name": "BET_MIN",
      "outputs": [
        {
          "internalType": "uint256",
          "name": "",
          "type": "uint256"
        }
      ],
      "stateMutability": "view",
      "type": "function"
    },
    {
      "inputs": [],
      "name": "REVEAL_TIMEOUT",
      "outputs": [
        {
          "internalType": "uint256",
          "name": "",
          "type": "uint256"
        }
      ],
      "stateMutability": "view",
      "type": "function"
    },
    {
      "inputs": [],
      "name": "bothPlayed",
      "outputs": [
        {
          "internalType": "bool",
          "name": "",
          "type": "bool"
        }
      ],
      "stateMutability": "view",
      "type": "function"
    },
    {
      "inputs": [],
      "name": "bothRevealed",
      "outputs": [
        {
          "internalType": "bool",
          "name": "",
          "type": "bool"
        }
      ],
      "stateMutability": "view",
      "type": "function"
    },
    {
      "inputs": [],
      "name": "checkTimeout_play",
      "outputs": [
        {
          "internalType": "string",
          "name": "",
          "type": "string"
        }
      ],
      "stateMutability": "nonpayable",
      "type": "function"
    },
    {
      "inputs": [],
      "name": "checkTimeout_register",
      "outputs": [
        {
          "internalType": "string",
          "name": "",
          "type": "string"
        }
      ],
      "stateMutability": "nonpayable",
      "type": "function"
    },
    {
      "inputs": [],
      "name": "checkTimeout_reveal",
      "outputs": [
        {
          "internalType": "string",
          "name": "",
          "type": "string"
        }
      ],
      "stateMutability": "nonpayable",
      "type": "function"
    },
    {
      "inputs": [],
      "name": "getContractBalance",
      "outputs": [
        {
          "internalType": "uint256",
          "name": "",
          "type": "uint256"
        }
      ],
      "stateMutability": "view",
      "type": "function"
    },
    {
      "inputs": [],
      "name": "getFinalOutput",
      "outputs": [
        {
          "internalType": "string",
          "name": "",
          "type": "string"
        }
      ],
      "stateMutability": "view",
      "type": "function"
    },
    {
      "inputs": [],
      "name": "getOutcome",
      "outputs": [
        {
          "internalType": "enum RockPaperScissors.Outcomes",
          "name": "",
          "type": "uint8"
        }
      ],
      "stateMutability": "nonpayable",
      "type": "function"
    },
    {
      "inputs": [],
      "name": "getPlayOutput",
      "outputs": [
        {
          "internalType": "string",
          "name": "",
          "type": "string"
        }
      ],
      "stateMutability": "view",
      "type": "function"
    },
    {
      "inputs": [],
      "name": "getRegisterValue",
      "outputs": [
        {
          "internalType": "string",
          "name": "",
          "type": "string"
        }
      ],
      "stateMutability": "view",
      "type": "function"
    },
    {
      "inputs": [],
      "name": "getRevealOutput",
      "outputs": [
        {
          "internalType": "string",
          "name": "",
          "type": "string"
        }
      ],
      "stateMutability": "view",
      "type": "function"
    },
    {
      "inputs": [],
      "name": "initialBet",
      "outputs": [
        {
          "internalType": "uint256",
          "name": "",
          "type": "uint256"
        }
      ],
      "stateMutability": "view",
      "type": "function"
    },
    {
      "inputs": [
        {
          "internalType": "uint256",
          "name": "",
          "type": "uint256"
        }
      ],
      "name": "listOfPlayers",
      "outputs": [
        {
          "internalType": "address",
          "name": "MyAddr",
          "type": "address"
        },
        {
          "internalType": "address",
          "name": "OppAddr",
          "type": "address"
        },
        {
          "internalType": "uint256",
          "name": "bet",
          "type": "uint256"
        },
        {
          "internalType": "bytes32",
          "name": "encryptedMove",
          "type": "bytes32"
        },
        {
          "internalType": "enum RockPaperScissors.Moves",
          "name": "movePlayer",
          "type": "uint8"
        },
        {
          "internalType": "uint256",
          "name": "timeout_register",
          "type": "uint256"
        },
        {
          "internalType": "uint256",
          "name": "timeout_play",
          "type": "uint256"
        },
        {
          "internalType": "uint256",
          "name": "timeout_reveal",
          "type": "uint256"
        },
        {
          "internalType": "uint256",
          "name": "registerOutputValue",
          "type": "uint256"
        },
        {
          "internalType": "bool",
          "name": "PlayOutputValue",
          "type": "bool"
        },
        {
          "internalType": "enum RockPaperScissors.Moves",
          "name": "RevealOutputValue",
          "type": "uint8"
        }
      ],
      "stateMutability": "view",
      "type": "function"
    },
    {
      "inputs": [],
      "name": "opponentJoined",
      "outputs": [
        {
          "internalType": "bool",
          "name": "",
          "type": "bool"
        }
      ],
      "stateMutability": "view",
      "type": "function"
    },
    {
      "inputs": [
        {
          "internalType": "bytes32",
          "name": "encrMove",
          "type": "bytes32"
        }
      ],
      "name": "play",
      "outputs": [
        {
          "internalType": "bool",
          "name": "",
          "type": "bool"
        }
      ],
      "stateMutability": "nonpayable",
      "type": "function"
    },
    {
      "inputs": [],
      "name": "register",
      "outputs": [
        {
          "internalType": "uint256",
          "name": "",
          "type": "uint256"
        }
      ],
      "stateMutability": "payable",
      "type": "function"
    },
    {
      "inputs": [
        {
          "internalType": "string",
          "name": "clearMove",
          "type": "string"
        }
      ],
      "name": "reveal",
      "outputs": [
        {
          "internalType": "enum RockPaperScissors.Moves",
          "name": "",
          "type": "uint8"
        }
      ],
      "stateMutability": "nonpayable",
      "type": "function"
    },
    {
      "inputs": [],
      "name": "timeout",
      "outputs": [
        {
          "internalType": "uint256",
          "name": "",
          "type": "uint256"
        }
      ],
      "stateMutability": "view",
      "type": "function"
    },
    {
      "inputs": [],
      "name": "whoAmI",
      "outputs": [
        {
          "internalType": "uint256",
          "name": "",
          "type": "uint256"
        }
      ],
      "stateMutability": "view",
      "type": "function"
    }
  ],
  "bytecode": {
    "object": "0x6080604052607860025534801561001557600080fd5b506134ff806100256000396000f3fe60806040526004361061012a5760003560e01c80636b07bd89116100ab5780639d2457191161006f5780639d245719146102d0578063c7a1865b146102e5578063d347c04c14610305578063da46cc2d1461031a578063da91254c1461032f578063ee198ce01461034457600080fd5b80636b07bd89146102665780636f9fb98a1461027b57806370dea79a146102905780637e7e4b47146102a6578063807c8504146102bb57600080fd5b80633d6ae3a7116100f25780633d6ae3a7146101b25780633f061259146101c857806343445ca8146101ff5780634c261247146102245780635afe0dd51461025157600080fd5b80631aa3a0081461012f5780631d73c64c1461014a5780631ea38c3b146101605780632626ab08146101825780632fc751131461019d575b600080fd5b610137610359565b6040519081526020015b60405180910390f35b34801561015657600080fd5b5061013760005481565b34801561016c57600080fd5b50610175610974565b604051610141919061311f565b34801561018e57600080fd5b50610137662386f26fc1000081565b3480156101a957600080fd5b50610175610e6a565b3480156101be57600080fd5b5061013761025881565b3480156101d457600080fd5b506101e86101e3366004613139565b6112ef565b6040516101419b9a99989796959493929190613186565b34801561020b57600080fd5b5061021461136f565b6040519015158152602001610141565b34801561023057600080fd5b5061024461023f366004613214565b6114bd565b60405161014191906132c5565b34801561025d57600080fd5b50610214611b28565b34801561027257600080fd5b50610175611b8f565b34801561028757600080fd5b50610137611ced565b34801561029c57600080fd5b5061013760025481565b3480156102b257600080fd5b50610244611dd5565b3480156102c757600080fd5b50610214612174565b3480156102dc57600080fd5b50610175612306565b3480156102f157600080fd5b50610214610300366004613139565b6123ab565b34801561031157600080fd5b5061017561276f565b34801561032657600080fd5b50610175612902565b34801561033b57600080fd5b50610137612a2d565b34801561035057600080fd5b50610175612a3d565b60055460009061036b906002906132d8565b60000361038b57662386f26fc1000034101561038657600080fd5b6103de565b600554662386f26fc1000034108015906103d3575060056103ad600183613310565b815481106103bd576103bd613329565b90600052602060002090600a0201600201543410155b6103dc57600080fd5b505b6005546103ec6002826132d8565b156104335760056103fe600183613310565b8154811061040e5761040e613329565b60009182526020909120600a90910201546001600160a01b0316330361043357600080fd5b604080516101608101825233815260006020820181905234928201929092526060810182905260059160808201908152602001600081526020016000815260200160008152602001600081526020016000151581526020016000600381111561049e5761049e613152565b905281546001818101845560009384526020938490208351600a9093020180546001600160a01b039384166001600160a01b03199182161782559484015181830180549190941695169490941790915560408201516002840155606082015160038085019190915560808301516004850180549495949193909260ff1990921691849081111561053057610530613152565b021790555060a0820151600582015560c0820151600682015560e0820151600782015561010080830151600883015561012083015160098301805491151560ff1983168117825561014086015193919261ff001990911661ffff1990911617908360038111156105a2576105a2613152565b0217905550506005546105b59150612af1565b6005546105c4906002906132d8565b6000036108fb57600580549033906105dd600284613310565b815481106105ed576105ed613329565b60009182526020909120600a9091020160010180546001600160a01b0319166001600160a01b0392909216919091179055600561062b600283613310565b8154811061063b5761063b613329565b60009182526020909120600a90910201546001600160a01b03166005610662600184613310565b8154811061067257610672613329565b60009182526020909120600a90910201600190810180546001600160a01b0319166001600160a01b0393909316929092179091556005805442926106b591613310565b815481106106c5576106c5613329565b90600052602060002090600a020160050181905550600254600560026005805490506106f19190613310565b8154811061070157610701613329565b90600052602060002090600a020160050154600560016005805490506107279190613310565b8154811061073757610737613329565b90600052602060002090600a0201600501546107539190613310565b11156108ba5760058054600091829161076e90600190613310565b8154811061077e5761077e613329565b60009182526020909120600a9091020154600580546001600160a01b039092169350906107ad90600290613310565b815481106107bd576107bd613329565b60009182526020909120600a9091020154600580546001600160a01b039283169350918416916108fc91906107f490600190613310565b8154811061080457610804613329565b90600052602060002090600a0201600201549081150290604051600060405180830381858888f19350505050158015610841573d6000803e3d6000fd5b50600580546001600160a01b038316916108fc9161086190600290613310565b8154811061087157610871613329565b90600052602060002090600a0201600201549081150290604051600060405180830381858888f193505050501580156108ae573d6000803e3d6000fd5b506108b7612b39565b50505b60006108c533612d16565b90506002600582815481106108dc576108dc613329565b90600052602060002090600a0201600801819055506002935050505090565b6005805442919061090e90600190613310565b8154811061091e5761091e613329565b90600052602060002090600a020160050181905550600061093e33612d16565b905060016005828154811061095557610955613329565b90600052602060002090600a02016008018190555060019250505b5090565b60606000808061098333612d16565b9050600081612710146109f657600582815481106109a3576109a3613329565b90600052602060002090600a02016007015493506109ef600583815481106109cd576109cd613329565b600091825260209091206001600a9092020101546001600160a01b0316612d16565b9050610a2a565b60405180604001604052806012815260200171526567697374657220796f75722067616d6560701b81525094505050505090565b83600003610a64576040518060400160405280601081526020016f52657665616c20796f7572206d6f766560801b81525094505050505090565b6001600160a01b03831615801590610a7e57508061271014155b8015610aaf575060058181548110610a9857610a98613329565b90600052602060002090600a020160070154600014155b15610db95760008060058481548110610aca57610aca613329565b60009182526020909120600a9091020154600580546001600160a01b0390921693509084908110610afd57610afd613329565b60009182526020909120600a9091020154600580546001600160a01b03909216925060789186908110610b3257610b32613329565b90600052602060002090600a02016007015460058581548110610b5757610b57613329565b90600052602060002090600a020160070154610b739190613310565b1115610c6657816001600160a01b03166108fc60058581548110610b9957610b99613329565b90600052602060002090600a02016002015460058781548110610bbe57610bbe613329565b90600052602060002090600a020160020154610bda919061333f565b6040518115909202916000818181858888f19350505050158015610c02573d6000803e3d6000fd5b50610c2f6040518060400160405280602081526020016000805160206133f2833981519152815250612d7d565b610c37612b39565b6040518060400160405280602081526020016000805160206133f2833981519152815250965050505050505090565b607860058481548110610c7b57610c7b613329565b90600052602060002090600a02016007015460058681548110610ca057610ca0613329565b90600052602060002090600a020160070154610cbc9190613310565b1115610d7857806001600160a01b03166108fc60058581548110610ce257610ce2613329565b90600052602060002090600a02016002015460058781548110610d0757610d07613329565b90600052602060002090600a020160020154610d23919061333f565b6040518115909202916000818181858888f19350505050158015610d4b573d6000803e3d6000fd5b50610c376040518060400160405280602081526020016000805160206133f2833981519152815250612d7d565b6040518060400160405280601a81526020017f486f6c64206f6e2120546865726527732074696d65206c656674000000000000815250965050505050505090565b6078610dc58542613310565b1115610e2b57610e01336005610dda33612d16565b81548110610dea57610dea613329565b90600052602060002090600a020160020154612dc0565b610e09612b39565b60405180606001604052806036815260200161345d6036913994505050505090565b6040518060400160405280601a81526020017f486f6c64206f6e2120546865726527732054696d65206c65667400000000000081525094505050505090565b6060600080600080610e7b33612d16565b905080612710146109f65760058181548110610e9957610e99613329565b90600052602060002090600a020160050154935060058181548110610ec057610ec0613329565b600091825260208220600a90910201600101546001600160a01b03169250849003610f195760405180604001604052806012815260200171526567697374657220796f75722067616d6560701b81525094505050505090565b6001600160a01b0382161561111d576000610f3383612d16565b905060058181548110610f4857610f48613329565b90600052602060002090600a020160050154935060788585610f6a9190613310565b1180610f7f57506078610f7d8587613310565b115b156110dd5760008060058481548110610f9a57610f9a613329565b60009182526020909120600a9091020154600580546001600160a01b0390921693509084908110610fcd57610fcd613329565b90600052602060002090600a020160000160009054906101000a90046001600160a01b03169050816001600160a01b03166108fc6005868154811061101457611014613329565b90600052602060002090600a0201600201549081150290604051600060405180830381858888f19350505050158015611051573d6000803e3d6000fd5b50806001600160a01b03166108fc6005858154811061107257611072613329565b90600052602060002090600a0201600201549081150290604051600060405180830381858888f193505050501580156110af573d6000803e3d6000fd5b506110b8612b39565b6040518060600160405280602f81526020016133c3602f913997505050505050505090565b6040518060400160405280601a81526020017f486f6c64206f6e2120546865726527732074696d65206c6566740000000000008152509550505050505090565b60786111298542613310565b111561126b5760006005828154811061114457611144613329565b60009182526020909120600a9091020154600580546001600160a01b039092169250611199918490811061117a5761117a613329565b60009182526020909120600a90910201546001600160a01b0316612dfb565b6111c8604051806040016040528060068152602001654265666f726560d01b8152506111c3611ced565b612e43565b6111d181612dfb565b6111e88160058481548110610dea57610dea613329565b6112116040518060400160405280600581526020016420b33a32b960d91b8152506111c3611ced565b6112406040518060400160405280600e81526020016d52657475726e6564206d6f6e657960901b815250612d7d565b611248612b39565b60405180606001604052806036815260200161345d603691399550505050505090565b61129f604051806040016040528060138152602001720213637b1b5903a34b6b2b9ba30b6b81034b99606d1b815250612d7d565b6112a842612af1565b6112e66040518060400160405280601b81526020017f54696d6520647572696e6720726567697374726174696f6e2069730000000000815250612d7d565b610e2b84612af1565b600581815481106112ff57600080fd5b60009182526020909120600a909102018054600182015460028301546003840154600485015460058601546006870154600788015460088901546009909901546001600160a01b039889169a5096909716979496939560ff9384169592949193919291818116916101009004168b565b6000808061137c33612d16565b90508061271014611406576005818154811061139a5761139a613329565b6000918252602082206001600a9092020101546001600160a01b03169250600582815481106113cb576113cb613329565b600091825260209091206004600a90920201015460ff1660038111156113f3576113f3613152565b036114015760009250505090565b611442565b611439604051806040016040528060128152602001713cb7ba903234b2373a103932b3b4b9ba32b960711b815250612d7d565b60009250505090565b600061144d83612d16565b905080612710146114a95760006005828154811061146d5761146d613329565b600091825260209091206004600a90920201015460ff16600381111561149557611495613152565b036114a4576000935050505090565b6114b3565b6000935050505090565b6001935050505090565b600080808080806114cd33612d16565b9050806127101461156d57600581815481106114eb576114eb613329565b60009182526020909120600a9091020154600580546001600160a01b039092169650908290811061151e5761151e613329565b90600052602060002090600a020160010160009054906101000a90046001600160a01b031693506005818154811061155857611558613329565b90600052602060002090600a02016003015492505b600061157885612d16565b905080612710146115ab576005818154811061159657611596613329565b90600052602060002090600a02016003015492505b83158015906115b957508215155b6115c257600080fd5b60006115cd33612d16565b90508061271014611b1157600060028a6040516020016115ed9190613352565b60408051601f198184030181529082905261160791613352565b602060405180830381855afa158015611624573d6000803e3d6000fd5b5050506040513d601f19601f82011682018060405250810190611647919061336e565b905060006116548b612e88565b600381111561166557611665613152565b9050426005848154811061167b5761167b613329565b90600052602060002090600a02016007018190555060006116a8600585815481106109cd576109cd613329565b9050600581815481106116bd576116bd613329565b90600052602060002090600a02016007015460001461197d57600080600586815481106116ec576116ec613329565b60009182526020909120600a9091020154600580546001600160a01b039092169350908490811061171f5761171f613329565b60009182526020909120600a9091020154600580546001600160a01b0390921692506078918890811061175457611754613329565b90600052602060002090600a0201600701546005858154811061177957611779613329565b90600052602060002090600a0201600701546117959190613310565b111561186857816001600160a01b03166108fc600585815481106117bb576117bb613329565b90600052602060002090600a020160020154600589815481106117e0576117e0613329565b90600052602060002090600a0201600201546117fc919061333f565b6040518115909202916000818181858888f19350505050158015611824573d6000803e3d6000fd5b506118516040518060400160405280602081526020016000805160206133f2833981519152815250612d7d565b611859612b39565b60009c50505050505050611b1d565b60786005848154811061187d5761187d613329565b90600052602060002090600a020160070154600588815481106118a2576118a2613329565b90600052602060002090600a0201600701546118be9190613310565b111561197a57806001600160a01b03166108fc600585815481106118e4576118e4613329565b90600052602060002090600a0201600201546005898154811061190957611909613329565b90600052602060002090600a020160020154611925919061333f565b6040518115909202916000818181858888f1935050505015801561194d573d6000803e3d6000fd5b5061197a6040518060400160405280602081526020016000805160206133f2833981519152815250612d7d565b50505b600082600381111561199157611991613152565b036119ec576000600585815481106119ab576119ab613329565b600091825260209091206009600a9092020101805461ff0019166101008360038111156119da576119da613152565b021790555060009a5050505050611b1d565b8260058581548110611a0057611a00613329565b90600052602060002090600a02016003015403611b09578160058581548110611a2b57611a2b613329565b600091825260209091206004600a9092020101805460ff19166001836003811115611a5857611a58613152565b0217905550611a9b6040518060400160405280601c81526020017f776f726b696e6720696e2072657665616c2d7375636365737366756c00000000815250612d7d565b611ab5826003811115611ab057611ab0613152565b612af1565b8160058581548110611ac957611ac9613329565b600091825260209091206009600a9092020101805461ff001916610100836003811115611af857611af8613152565b0217905550819a5050505050611b1d565b505050611b1b565b6000975050611b1d565b505b505050505050919050565b600080611b3433612d16565b90508061271014611b875760006001600160a01b031660058281548110611b5d57611b5d613329565b600091825260209091206001600a9092020101546001600160a01b031614611b8757600191505090565b600091505090565b6060600080600080611ba033612d16565b905080612710146109f65760058181548110611bbe57611bbe613329565b90600052602060002090600a020160060154935060058181548110611be557611be5613329565b600091825260208220600a90910201600101546001600160a01b03169250849003611c39576040518060400160405280600d81526020016c506c6179207468652067616d6560981b81525094505050505090565b6001600160a01b03821615611c8a576000611c5383612d16565b905060058181548110611c6857611c68613329565b90600052602060002090600a020160060154935060788585610f6a9190613310565b6078611c968542613310565b1115610e2b57336000611ca882612d16565b9050611cc18260058381548110610dea57610dea613329565b611cc9612b39565b60405180606001604052806036815260200161345d60369139965050505050505090565b6000808080611cfb33612d16565b90508061271014611d735760058181548110611d1957611d19613329565b90600052602060002090600a020160010160009054906101000a90046001600160a01b0316915060058181548110611d5357611d53613329565b90600052602060002090600a02016002015483611d70919061333f565b92505b6001600160a01b03821615611dcd576000611d8d83612d16565b90508061271014611dcb5760058181548110611dab57611dab613329565b90600052602060002090600a02016002015484611dc8919061333f565b93505b505b509092915050565b60008080808080611de533612d16565b90508061271014611e9e5760058181548110611e0357611e03613329565b60009182526020909120600a9091020154600580546001600160a01b0390921696509082908110611e3657611e36613329565b90600052602060002090600a020160010160009054906101000a90046001600160a01b0316935060058181548110611e7057611e70613329565b600091825260209091206004600a90920201015460ff169250611e9e836003811115611ab057611ab0613152565b6000611ea985612d16565b90508061271014611ee15760058181548110611ec757611ec7613329565b600091825260209091206004600a90920201015460ff1692505b6000846003811115611ef557611ef5613152565b14158015611f1557506000836003811115611f1257611f12613152565b14155b611f1e57600080fd5b600080600080600080611f3033612d16565b905060058181548110611f4557611f45613329565b60009182526020909120600a9091020154600580546001600160a01b0390921695509082908110611f7857611f78613329565b90600052602060002090600a020160010160009054906101000a90046001600160a01b0316925060058181548110611fb257611fb2613329565b6000918252602082206004600a90920201015460ff169650611fd384612d16565b905060058181548110611fe857611fe8613329565b600091825260209091206004600a90920201015460ff16955085600381111561201357612013613152565b87600381111561202557612025613152565b036120335760039250612121565b600187600381111561204757612047613152565b1480156120655750600386600381111561206357612063613152565b145b8061209d5750600287600381111561207f5761207f613152565b14801561209d5750600186600381111561209b5761209b613152565b145b806120d5575060038760038111156120b7576120b7613152565b1480156120d5575060028660038111156120d3576120d3613152565b145b8061210e575060008760038111156120ef576120ef613152565b1415801561210e5750600086600381111561210c5761210c613152565b145b1561211c5760019250612121565b600292505b84846121308282868689612f09565b612138612b39565b6008805486919062ff000019166201000083600381111561215b5761215b613152565b0217905550939e50505050505050505050505050505090565b6000808061218133612d16565b90508061271014611406576005818154811061219f5761219f613329565b90600052602060002090600a020160010160009054906101000a90046001600160a01b03169150600581815481106121d9576121d9613329565b90600052602060002090600a0201600301546000801b03612223576114396040518060400160405280600e81526020016d796f75206469646e7420706c617960901b815250612d7d565b600061222e83612d16565b905080612710146122a0576005818154811061224c5761224c613329565b90600052602060002090600a0201600301546000801b0361229b576114a9604051806040016040528060138152602001726f70706f6e656e74206469646e7420706c617960681b815250612d7d565b6122de565b6114a96040518060400160405280601781526020017f6f70706f6e656e74206469646e74207265676973746572000000000000000000815250612d7d565b6114b3604051806040016040528060078152602001665375636365737360c81b815250612d7d565b6060600061231333612d16565b90506005818154811061232857612328613329565b90600052602060002090600a020160080154600103612360576040518060600160405280603781526020016134936037913991505090565b6005818154811061237357612373613329565b90600052602060002090600a020160080154600203610970576040518060600160405280602781526020016134366027913991505090565b6000806123b733612d16565b905080612710146127305760006001600160a01b0316600582815481106123e0576123e0613329565b600091825260209091206001600a9092020101546001600160a01b03161480159061243157506005818154811061241957612419613329565b90600052602060002090600a0201600301546000801b145b1561273057826005828154811061244a5761244a613329565b90600052602060002090600a02016003018190555060016005828154811061247457612474613329565b90600052602060002090600a020160090160006101000a81548160ff02191690831515021790555042600582815481106124b0576124b0613329565b90600052602060002090600a02016006018190555060006124dd600583815481106109cd576109cd613329565b9050600581815481106124f2576124f2613329565b90600052602060002090600a0201600601546000146127265760786005838154811061252057612520613329565b90600052602060002090600a0201600601546005838154811061254557612545613329565b90600052602060002090600a0201600601546125619190613310565b11806125c0575060786005828154811061257d5761257d613329565b90600052602060002090600a020160060154600584815481106125a2576125a2613329565b90600052602060002090600a0201600601546125be9190613310565b115b1561272657600080600584815481106125db576125db613329565b60009182526020909120600a9091020154600580546001600160a01b039092169350908490811061260e5761260e613329565b90600052602060002090600a020160000160009054906101000a90046001600160a01b03169050816001600160a01b03166108fc6005868154811061265557612655613329565b90600052602060002090600a0201600201549081150290604051600060405180830381858888f19350505050158015612692573d6000803e3d6000fd5b50806001600160a01b03166108fc600585815481106126b3576126b3613329565b90600052602060002090600a0201600201549081150290604051600060405180830381858888f193505050501580156126f0573d6000803e3d6000fd5b5061271260405180606001604052806024815260200161341260249139612d7d565b61271a612b39565b50600095945050505050565b5060019392505050565b60006005828154811061274557612745613329565b600091825260208220600a9190910201600901805460ff1916921515929092179091559392505050565b6060600061277c33612d16565b90506005818154811061279157612791613329565b90600052602060002090600a020160090160019054906101000a900460ff1660038111156127c1576127c1613152565b6000036127eb575050604080518082019091526007815266125b9d985b1a5960ca1b602082015290565b600581815481106127fe576127fe613329565b90600052602060002090600a020160090160019054906101000a900460ff16600381111561282e5761282e613152565b60010361285f57505060408051808201909152600e81526d52657665616c65643a20526f636b60901b602082015290565b6005818154811061287257612872613329565b90600052602060002090600a020160090160019054906101000a900460ff1660038111156128a2576128a2613152565b6002036128d457505060408051808201909152600f81526e2932bb32b0b632b21d102830b832b960891b602082015290565b505060408051808201909152601281527152657665616c65643a2053636973736f727360701b602082015290565b60085460609062010000900460ff16600381111561292257612922613152565b60000361294b5750604080518082019091526007815266125b9d985b1a5960ca1b602082015290565b60085462010000900460ff16600381111561296857612968613152565b600103612996575060408051808201909152600c81526b283630bcb2b91018903bb7b760a11b602082015290565b60085462010000900460ff1660038111156129b3576129b3613152565b6002036129e1575060408051808201909152600c81526b283630bcb2b91019103bb7b760a11b602082015290565b60085462010000900460ff1660038111156129fe576129fe613152565b600303612a2a575060408051808201909152600a81526923b0b6b290223930bbb760b11b602082015290565b90565b6000612a3833612d16565b905090565b60606000612a4a33612d16565b905060058181548110612a5f57612a5f613329565b600091825260209091206009600a90920201015460ff161515600103612ab857505060408051808201909152601c81527f5375636365737366756c6c792073746f72656420746865206d6f766500000000602082015290565b505060408051808201909152601d81527f4661696c656420746f2073746f72652074686520706c6179206d6f7665000000602082015290565b612b3681604051602401612b0791815260200190565b60408051601f198184030181529190526020810180516001600160e01b031663f5b1bba960e01b1790526130ae565b50565b600080612b4533612d16565b905060058181548110612b5a57612b5a613329565b600091825260209091206001600a9092020101546001600160a01b031691508115612c91576000612b8a83612d16565b905060058281548110612b9f57612b9f613329565b600091825260208220600a9091020180546001600160a01b031990811682556001820180549091169055600281018290556003810182905560048101805460ff19169055600580820183905560068201839055600782018390556008820192909255600901805461ffff19169055805482908110612c1f57612c1f613329565b600091825260208220600a9091020180546001600160a01b031990811682556001820180549091169055600281018290556003810182905560048101805460ff191690556005810182905560068101829055600781018290556008810191909155600901805461ffff19169055505050565b60058181548110612ca457612ca4613329565b600091825260208220600a9091020180546001600160a01b031990811682556001820180549091169055600281018290556003810182905560048101805460ff191690556005810182905560068101829055600781018290556008810191909155600901805461ffff191690555b5050565b6000805b600554811015612d735760058181548110612d3757612d37613329565b60009182526020909120600a90910201546001600160a01b0390811690841603612d615792915050565b80612d6b81613387565b915050612d1a565b5061271092915050565b612b3681604051602401612d91919061311f565b60408051601f198184030181529190526020810180516001600160e01b031663104c13eb60e21b1790526130ae565b6040516001600160a01b0383169082156108fc029083906000818181858888f19350505050158015612df6573d6000803e3d6000fd5b505050565b6040516001600160a01b0382166024820152612b369060440160408051601f198184030181529190526020810180516001600160e01b031663161765e160e11b1790526130ae565b612d128282604051602401612e599291906133a0565b60408051601f198184030181529190526020810180516001600160e01b03166309710a9d60e41b1790526130ae565b60008082600081518110612e9e57612e9e613329565b01602001516001600160f81b0319169050603160f81b819003612ec45750600192915050565b6001600160f81b03198116601960f91b03612ee25750600292915050565b6001600160f81b03198116603360f81b03612f005750600392915050565b50600092915050565b6001816003811115612f1d57612f1d613152565b03612fb157846001600160a01b03166108fc60058481548110612f4257612f42613329565b90600052602060002090600a02016002015460058681548110612f6757612f67613329565b90600052602060002090600a020160020154612f83919061333f565b6040518115909202916000818181858888f19350505050158015612fab573d6000803e3d6000fd5b506130a7565b6002816003811115612fc557612fc5613152565b03612fea57836001600160a01b03166108fc60058481548110612f4257612f42613329565b846001600160a01b03166108fc6005858154811061300a5761300a613329565b90600052602060002090600a0201600201549081150290604051600060405180830381858888f19350505050158015613047573d6000803e3d6000fd5b50836001600160a01b03166108fc6005848154811061306857613068613329565b90600052602060002090600a0201600201549081150290604051600060405180830381858888f193505050501580156130a5573d6000803e3d6000fd5b505b5050505050565b80516a636f6e736f6c652e6c6f67602083016000808483855afa5050505050565b60005b838110156130ea5781810151838201526020016130d2565b50506000910152565b6000815180845261310b8160208601602086016130cf565b601f01601f19169290920160200192915050565b60208152600061313260208301846130f3565b9392505050565b60006020828403121561314b57600080fd5b5035919050565b634e487b7160e01b600052602160045260246000fd5b60048110612b3657634e487b7160e01b600052602160045260246000fd5b6001600160a01b038c811682528b166020820152604081018a90526060810189905261016081016131b689613168565b8860808301528760a08301528660c08301528560e0830152846101008301528315156101208301526131e783613168565b826101408301529c9b505050505050505050505050565b634e487b7160e01b600052604160045260246000fd5b60006020828403121561322657600080fd5b813567ffffffffffffffff8082111561323e57600080fd5b818401915084601f83011261325257600080fd5b813581811115613264576132646131fe565b604051601f8201601f19908116603f0116810190838211818310171561328c5761328c6131fe565b816040528281528760208487010111156132a557600080fd5b826020860160208301376000928101602001929092525095945050505050565b602081016132d283613168565b91905290565b6000826132f557634e487b7160e01b600052601260045260246000fd5b500690565b634e487b7160e01b600052601160045260246000fd5b81810381811115613323576133236132fa565b92915050565b634e487b7160e01b600052603260045260246000fd5b80820180821115613323576133236132fa565b600082516133648184602087016130cf565b9190910192915050565b60006020828403121561338057600080fd5b5051919050565b600060018201613399576133996132fa565b5060010190565b6040815260006133b360408301856130f3565b9050826020830152939250505056fe54696d656f7574202d2072657475726e6564207468652062616c616e63657320746f20796f7572206163636f756e74536869667465642062616c616e6365732064756520746f2074696d65206f75745472616e736665727265642062616c616e6365732064756520746f2074696d65206f7574526567697374726174696f6e207375636365737366756c2e20506c6179207468652067616d652e54696d6564206f75742c206e6f206f70706f6e656e74206d6174636865642e205265747572696e6720796f7572206465706f7369742e526567697374726174696f6e205375636365737366756c2e205761697420666f7220746865206f70706f6e656e7420746f206a6f696e2ea264697066735822122030682c8273c120e30be251d41903d03016c01d4e8676797d842bf9c2be2ccac564736f6c63430008130033",
    "linkReferences": {}
  },
  "methodIdentifiers": {
    "BET_MIN()": "2626ab08",
    "REVEAL_TIMEOUT()": "3d6ae3a7",
    "bothPlayed()": "807c8504",
    "bothRevealed()": "43445ca8",
    "checkTimeout_play()": "6b07bd89",
    "checkTimeout_register()": "2fc75113",
    "checkTimeout_reveal()": "1ea38c3b",
    "getContractBalance()": "6f9fb98a",
    "getFinalOutput()": "da46cc2d",
    "getOutcome()": "7e7e4b47",
    "getPlayOutput()": "ee198ce0",
    "getRegisterValue()": "9d245719",
    "getRevealOutput()": "d347c04c",
    "initialBet()": "1d73c64c",
    "listOfPlayers(uint256)": "3f061259",
    "opponentJoined()": "5afe0dd5",
    "play(bytes32)": "c7a1865b",
    "register()": "1aa3a008",
    "reveal(string)": "4c261247",
    "timeout()": "70dea79a",
    "whoAmI()": "da91254c"
  },
  "id": 18
}