{
  "abi": [
    {
      "inputs": [],
      "name": "BET_MIN",
      "outputs": [
        {
          "internalType": "uint256",
          "name": "",
          "type": "uint256"
        }
      ],
      "stateMutability": "view",
      "type": "function"
    },
    {
      "inputs": [],
      "name": "PlayOutputValue",
      "outputs": [
        {
          "internalType": "uint256",
          "name": "",
          "type": "uint256"
        }
      ],
      "stateMutability": "view",
      "type": "function"
    },
    {
      "inputs": [],
      "name": "REVEAL_TIMEOUT",
      "outputs": [
        {
          "internalType": "uint256",
          "name": "",
          "type": "uint256"
        }
      ],
      "stateMutability": "view",
      "type": "function"
    },
    {
      "inputs": [],
      "name": "RevealOutputValue",
      "outputs": [
        {
          "internalType": "enum RockPaperScissors.Moves",
          "name": "",
          "type": "uint8"
        }
      ],
      "stateMutability": "view",
      "type": "function"
    },
    {
      "inputs": [],
      "name": "bothPlayed",
      "outputs": [
        {
          "internalType": "bool",
          "name": "",
          "type": "bool"
        }
      ],
      "stateMutability": "view",
      "type": "function"
    },
    {
      "inputs": [],
      "name": "bothRevealed",
      "outputs": [
        {
          "internalType": "bool",
          "name": "",
          "type": "bool"
        }
      ],
      "stateMutability": "view",
      "type": "function"
    },
    {
      "inputs": [],
      "name": "getContractBalance",
      "outputs": [
        {
          "internalType": "uint256",
          "name": "",
          "type": "uint256"
        }
      ],
      "stateMutability": "view",
      "type": "function"
    },
    {
      "inputs": [],
      "name": "getOutcome",
      "outputs": [
        {
          "internalType": "enum RockPaperScissors.Outcomes",
          "name": "",
          "type": "uint8"
        }
      ],
      "stateMutability": "nonpayable",
      "type": "function"
    },
    {
      "inputs": [],
      "name": "getOutcome_",
      "outputs": [
        {
          "internalType": "enum RockPaperScissors.Outcomes",
          "name": "",
          "type": "uint8"
        }
      ],
      "stateMutability": "view",
      "type": "function"
    },
    {
      "inputs": [],
      "name": "getPlayOutput",
      "outputs": [
        {
          "internalType": "uint256",
          "name": "",
          "type": "uint256"
        }
      ],
      "stateMutability": "view",
      "type": "function"
    },
    {
      "inputs": [],
      "name": "getRegisterValue",
      "outputs": [
        {
          "internalType": "uint256",
          "name": "",
          "type": "uint256"
        }
      ],
      "stateMutability": "view",
      "type": "function"
    },
    {
      "inputs": [],
      "name": "getRevealOutput",
      "outputs": [
        {
          "internalType": "enum RockPaperScissors.Moves",
          "name": "",
          "type": "uint8"
        }
      ],
      "stateMutability": "view",
      "type": "function"
    },
    {
      "inputs": [],
      "name": "initialBet",
      "outputs": [
        {
          "internalType": "uint256",
          "name": "",
          "type": "uint256"
        }
      ],
      "stateMutability": "view",
      "type": "function"
    },
    {
      "inputs": [],
      "name": "outcome1",
      "outputs": [
        {
          "internalType": "enum RockPaperScissors.Outcomes",
          "name": "",
          "type": "uint8"
        }
      ],
      "stateMutability": "view",
      "type": "function"
    },
    {
      "inputs": [
        {
          "internalType": "bytes32",
          "name": "encrMove",
          "type": "bytes32"
        }
      ],
      "name": "play",
      "outputs": [
        {
          "internalType": "bool",
          "name": "",
          "type": "bool"
        }
      ],
      "stateMutability": "nonpayable",
      "type": "function"
    },
    {
      "inputs": [],
      "name": "register",
      "outputs": [
        {
          "internalType": "uint256",
          "name": "",
          "type": "uint256"
        }
      ],
      "stateMutability": "payable",
      "type": "function"
    },
    {
      "inputs": [],
      "name": "registerOutputValue",
      "outputs": [
        {
          "internalType": "uint256",
          "name": "",
          "type": "uint256"
        }
      ],
      "stateMutability": "view",
      "type": "function"
    },
    {
      "inputs": [],
      "name": "reset_",
      "outputs": [
        {
          "internalType": "bool",
          "name": "",
          "type": "bool"
        }
      ],
      "stateMutability": "nonpayable",
      "type": "function"
    },
    {
      "inputs": [
        {
          "internalType": "string",
          "name": "clearMove",
          "type": "string"
        }
      ],
      "name": "reveal",
      "outputs": [
        {
          "internalType": "enum RockPaperScissors.Moves",
          "name": "",
          "type": "uint8"
        }
      ],
      "stateMutability": "nonpayable",
      "type": "function"
    },
    {
      "inputs": [],
      "name": "revealTimeLeft",
      "outputs": [
        {
          "internalType": "int256",
          "name": "",
          "type": "int256"
        }
      ],
      "stateMutability": "view",
      "type": "function"
    },
    {
      "inputs": [],
      "name": "whoAmI",
      "outputs": [
        {
          "internalType": "uint256",
          "name": "",
          "type": "uint256"
        }
      ],
      "stateMutability": "view",
      "type": "function"
    }
  ],
  "bytecode": {
    "object": "0x608060405234801561001057600080fd5b5061109d806100206000396000f3fe60806040526004361061012a5760003560e01c806351dcb1c3116100ab5780639d2457191161006f5780639d245719146102b65780639f2edcbe146102cb578063c7a1865b146102e1578063d347c04c14610301578063da91254c14610319578063ee198ce01461032e57600080fd5b806351dcb1c31461024f5780635899b9a7146102645780636f9fb98a146102795780637e7e4b471461028c578063807c8504146102a157600080fd5b80633407b583116100f25780633407b583146101bb5780633d6ae3a7146101da57806343445ca8146101f057806344fc2662146102155780634c2612471461022f57600080fd5b8063071e73321461012f5780631786406e1461015e5780631aa3a008146101825780631d73c64c1461018a5780632626ab08146101a0575b600080fd5b34801561013b57600080fd5b50600454610100900460ff165b6040516101559190610e48565b60405180910390f35b34801561016a57600080fd5b5061017460015481565b604051908152602001610155565b610174610343565b34801561019657600080fd5b5061017460025481565b3480156101ac57600080fd5b50610174662386f26fc1000081565b3480156101c757600080fd5b5060045461014890610100900460ff1681565b3480156101e657600080fd5b5061017461025881565b3480156101fc57600080fd5b506102056104d0565b6040519015158152602001610155565b34801561022157600080fd5b506004546101489060ff1681565b34801561023b57600080fd5b5061014861024a366004610e71565b610519565b34801561025b57600080fd5b506101746106f9565b34801561027057600080fd5b50610205610727565b34801561028557600080fd5b5047610174565b34801561029857600080fd5b506101486107f6565b3480156102ad57600080fd5b50610205610a82565b3480156102c257600080fd5b50600054610174565b3480156102d757600080fd5b5061017460005481565b3480156102ed57600080fd5b506102056102fc366004610f22565b610a9a565b34801561030d57600080fd5b5060045460ff16610148565b34801561032557600080fd5b50610174610b3d565b34801561033a57600080fd5b50600154610174565b600061037c6040518060400160405280600d81526020016c3b30b63ab296103132ba36b4b760991b81525034662386f26fc10000610b7c565b662386f26fc1000034101561039057600080fd5b60025415806103a157506002543410155b6103aa57600080fd5b6103b333610bc8565b6004546201000090046001600160a01b031633148015906103df57506005546001600160a01b03163314155b6103e857600080fd5b6004546201000090046001600160a01b031661046557600454610419906201000090046001600160a01b0316610bc8565b61042233610bc8565b600480546201000033810262010000600160b01b031990921691909117918290553460025561045a91046001600160a01b0316610bc8565b506001600081905590565b6005546001600160a01b03166104c757604080518082019091526008815267383630bcb2b9211d60c11b60208201526005546104aa91906001600160a01b0316610c13565b50600580546001600160a01b031916331790556002600081905590565b50600080805590565b60008060085460ff1660038111156104ea576104ea610e14565b1415801561051457506000600854610100900460ff16600381111561051157610511610e14565b14155b905090565b6004546000906201000090046001600160a01b031633148061054557506005546001600160a01b031633145b61054e57600080fd5b60065415801590610560575060075415155b61056957600080fd5b600060028360405160200161057e9190610f5f565b60408051601f198184030181529082905261059891610f5f565b602060405180830381855afa1580156105b5573d6000803e3d6000fd5b5050506040513d601f19601f820116820180604052508101906105d89190610f7b565b905060006105e584610c5c565b60038111156105f6576105f6610e14565b9050600081600381111561060c5761060c610e14565b0361061b575060009392505050565b6004546201000090046001600160a01b03163314801561063c575060065482145b1561066a576008805482919060ff1916600183600381111561066057610660610e14565b02179055506106bf565b6005546001600160a01b031633148015610685575060075482145b156106ab576008805482919061ff00191661010083600381111561066057610660610e14565b50506004805460ff19169055506000919050565b6003546000036106ce57426003555b6004805482919060ff191660018360038111156106ed576106ed610e14565b02179055509392505050565b600060035460001461072057426102586003546107169190610faa565b6105149190610fc3565b5061025890565b600480546005805460028054600091829055600382905562010000600160b01b031985169095556001600160a01b03198216909255600682905560078290556008805461ffff1916905560405191936001600160a01b03620100009094048416939091169183906108fc83150290839087818181858888f193505050501580156107b5573d6000803e3d6000fd5b506040516001600160a01b038316904780156108fc02916000818181858888f193505050501580156107eb573d6000803e3d6000fd5b506001935050505090565b60008060085460ff16600381111561081057610810610e14565b1415801561083a57506000600854610100900460ff16600381111561083757610837610e14565b14155b8061085f57506003541580159061085f575061025860035461085c9190610faa565b42115b61086857600080fd5b600854600090610100900460ff16600381111561088757610887610e14565b60085460ff16600381111561089e5761089e610e14565b036108c1575060048054600391829161ff001916610100835b0217905550610a08565b600160085460ff1660038111156108da576108da610e14565b14801561090257506003600854610100900460ff16600381111561090057610900610e14565b145b806109495750600260085460ff16600381111561092157610921610e14565b14801561094957506001600854610100900460ff16600381111561094757610947610e14565b145b806109905750600360085460ff16600381111561096857610968610e14565b14801561099057506002600854610100900460ff16600381111561098e5761098e610e14565b145b806109d85750600060085460ff1660038111156109af576109af610e14565b141580156109d857506000600854610100900460ff1660038111156109d6576109d6610e14565b145b156109f5575060048054600191829161ff001916610100836108b7565b506004805461ff00191661020017905560025b600454600554600254620100009092046001600160a01b0390811692911690610a6d6000600281905560038190556004805462010000600160b01b0319169055600580546001600160a01b031916905560068190556007556008805461ffff19169055565b610a7983838387610cdd565b50919250505090565b60065460009015801590610514575050600754151590565b6004546000906201000090046001600160a01b0316331480610ac657506005546001600160a01b031633145b610acf57600080fd5b6004546201000090046001600160a01b031633148015610aef5750600654155b15610afe576006829055610b33565b6005546001600160a01b031633148015610b185750600754155b15610b27576007829055610b33565b50506000600181905590565b5050600180805590565b6004546000906201000090046001600160a01b03163303610b5e5750600190565b6005546001600160a01b03163303610b765750600290565b50600090565b610bc3838383604051602401610b9493929190611002565b60408051601f198184030181529190526020810180516001600160e01b031663969cdd0360e01b179052610df3565b505050565b6040516001600160a01b0382166024820152610c109060440160408051601f198184030181529190526020810180516001600160e01b031663161765e160e11b179052610df3565b50565b610c588282604051602401610c29929190611027565b60408051601f198184030181529190526020810180516001600160e01b031663319af33360e01b179052610df3565b5050565b60008082600081518110610c7257610c72611051565b01602001516001600160f81b0319169050603160f81b819003610c985750600192915050565b6001600160f81b03198116601960f91b03610cb65750600292915050565b6001600160f81b03198116603360f81b03610cd45750600392915050565b50600092915050565b6001816003811115610cf157610cf1610e14565b03610d31576040516001600160a01b038516904780156108fc02916000818181858888f19350505050158015610d2b573d6000803e3d6000fd5b50610ded565b6002816003811115610d4557610d45610e14565b03610d7f576040516001600160a01b038416904780156108fc02916000818181858888f19350505050158015610d2b573d6000803e3d6000fd5b6040516001600160a01b0385169083156108fc029084906000818181858888f19350505050158015610db5573d6000803e3d6000fd5b506040516001600160a01b038416904780156108fc02916000818181858888f19350505050158015610deb573d6000803e3d6000fd5b505b50505050565b80516a636f6e736f6c652e6c6f67602083016000808483855afa5050505050565b634e487b7160e01b600052602160045260246000fd5b60048110610c1057634e487b7160e01b600052602160045260246000fd5b60208101610e5583610e2a565b91905290565b634e487b7160e01b600052604160045260246000fd5b600060208284031215610e8357600080fd5b813567ffffffffffffffff80821115610e9b57600080fd5b818401915084601f830112610eaf57600080fd5b813581811115610ec157610ec1610e5b565b604051601f8201601f19908116603f01168101908382118183101715610ee957610ee9610e5b565b81604052828152876020848701011115610f0257600080fd5b826020860160208301376000928101602001929092525095945050505050565b600060208284031215610f3457600080fd5b5035919050565b60005b83811015610f56578181015183820152602001610f3e565b50506000910152565b60008251610f71818460208701610f3b565b9190910192915050565b600060208284031215610f8d57600080fd5b5051919050565b634e487b7160e01b600052601160045260246000fd5b80820180821115610fbd57610fbd610f94565b92915050565b81810381811115610fbd57610fbd610f94565b60008151808452610fee816020860160208601610f3b565b601f01601f19169290920160200192915050565b6060815260006110156060830186610fd6565b60208301949094525060400152919050565b60408152600061103a6040830185610fd6565b905060018060a01b03831660208301529392505050565b634e487b7160e01b600052603260045260246000fdfea2646970667358221220e5318d8cf4458c061b841524d62e7097582623c2aa29a1b187b7d9473775c07864736f6c63430008130033",
    "linkReferences": {}
  },
  "methodIdentifiers": {
    "BET_MIN()": "2626ab08",
    "PlayOutputValue()": "1786406e",
    "REVEAL_TIMEOUT()": "3d6ae3a7",
    "RevealOutputValue()": "44fc2662",
    "bothPlayed()": "807c8504",
    "bothRevealed()": "43445ca8",
    "getContractBalance()": "6f9fb98a",
    "getOutcome()": "7e7e4b47",
    "getOutcome_()": "071e7332",
    "getPlayOutput()": "ee198ce0",
    "getRegisterValue()": "9d245719",
    "getRevealOutput()": "d347c04c",
    "initialBet()": "1d73c64c",
    "outcome1()": "3407b583",
    "play(bytes32)": "c7a1865b",
    "register()": "1aa3a008",
    "registerOutputValue()": "9f2edcbe",
    "reset_()": "5899b9a7",
    "reveal(string)": "4c261247",
    "revealTimeLeft()": "51dcb1c3",
    "whoAmI()": "da91254c"
  },
  "id": 20
}