{
  "abi": [
    {
      "inputs": [],
      "name": "BET_MIN",
      "outputs": [
        {
          "internalType": "uint256",
          "name": "",
          "type": "uint256"
        }
      ],
      "stateMutability": "view",
      "type": "function"
    },
    {
      "inputs": [],
      "name": "REVEAL_TIMEOUT",
      "outputs": [
        {
          "internalType": "uint256",
          "name": "",
          "type": "uint256"
        }
      ],
      "stateMutability": "view",
      "type": "function"
    },
    {
      "inputs": [],
      "name": "bothPlayed",
      "outputs": [
        {
          "internalType": "bool",
          "name": "",
          "type": "bool"
        }
      ],
      "stateMutability": "view",
      "type": "function"
    },
    {
      "inputs": [],
      "name": "bothRevealed",
      "outputs": [
        {
          "internalType": "bool",
          "name": "",
          "type": "bool"
        }
      ],
      "stateMutability": "view",
      "type": "function"
    },
    {
      "inputs": [],
      "name": "checkTimeout_play",
      "outputs": [],
      "stateMutability": "nonpayable",
      "type": "function"
    },
    {
      "inputs": [],
      "name": "checkTimeout_play_fe",
      "outputs": [
        {
          "internalType": "string",
          "name": "",
          "type": "string"
        }
      ],
      "stateMutability": "view",
      "type": "function"
    },
    {
      "inputs": [],
      "name": "checkTimeout_register",
      "outputs": [],
      "stateMutability": "nonpayable",
      "type": "function"
    },
    {
      "inputs": [],
      "name": "checkTimeout_register_fe",
      "outputs": [
        {
          "internalType": "string",
          "name": "",
          "type": "string"
        }
      ],
      "stateMutability": "view",
      "type": "function"
    },
    {
      "inputs": [],
      "name": "checkTimeout_reveal",
      "outputs": [],
      "stateMutability": "nonpayable",
      "type": "function"
    },
    {
      "inputs": [],
      "name": "checkTimeout_reveal_fe",
      "outputs": [
        {
          "internalType": "string",
          "name": "",
          "type": "string"
        }
      ],
      "stateMutability": "view",
      "type": "function"
    },
    {
      "inputs": [],
      "name": "getContractBalance",
      "outputs": [
        {
          "internalType": "uint256",
          "name": "",
          "type": "uint256"
        }
      ],
      "stateMutability": "view",
      "type": "function"
    },
    {
      "inputs": [],
      "name": "getFinalOutput",
      "outputs": [
        {
          "internalType": "string",
          "name": "",
          "type": "string"
        }
      ],
      "stateMutability": "view",
      "type": "function"
    },
    {
      "inputs": [],
      "name": "getOutcome",
      "outputs": [
        {
          "internalType": "enum RockPaperScissors.Outcomes",
          "name": "",
          "type": "uint8"
        }
      ],
      "stateMutability": "nonpayable",
      "type": "function"
    },
    {
      "inputs": [],
      "name": "getPlayOutput",
      "outputs": [
        {
          "internalType": "string",
          "name": "",
          "type": "string"
        }
      ],
      "stateMutability": "view",
      "type": "function"
    },
    {
      "inputs": [],
      "name": "getRegisterValue",
      "outputs": [
        {
          "internalType": "string",
          "name": "",
          "type": "string"
        }
      ],
      "stateMutability": "view",
      "type": "function"
    },
    {
      "inputs": [],
      "name": "getRevealOutput",
      "outputs": [
        {
          "internalType": "string",
          "name": "",
          "type": "string"
        }
      ],
      "stateMutability": "view",
      "type": "function"
    },
    {
      "inputs": [],
      "name": "initialBet",
      "outputs": [
        {
          "internalType": "uint256",
          "name": "",
          "type": "uint256"
        }
      ],
      "stateMutability": "view",
      "type": "function"
    },
    {
      "inputs": [
        {
          "internalType": "uint256",
          "name": "",
          "type": "uint256"
        }
      ],
      "name": "listOfPlayers",
      "outputs": [
        {
          "internalType": "address",
          "name": "MyAddr",
          "type": "address"
        },
        {
          "internalType": "address",
          "name": "OppAddr",
          "type": "address"
        },
        {
          "internalType": "uint256",
          "name": "bet",
          "type": "uint256"
        },
        {
          "internalType": "bytes32",
          "name": "encryptedMove",
          "type": "bytes32"
        },
        {
          "internalType": "enum RockPaperScissors.Moves",
          "name": "movePlayer",
          "type": "uint8"
        },
        {
          "internalType": "uint256",
          "name": "timeout_register",
          "type": "uint256"
        },
        {
          "internalType": "uint256",
          "name": "timeout_play",
          "type": "uint256"
        },
        {
          "internalType": "uint256",
          "name": "timeout_reveal",
          "type": "uint256"
        }
      ],
      "stateMutability": "view",
      "type": "function"
    },
    {
      "inputs": [],
      "name": "opponentJoined",
      "outputs": [
        {
          "internalType": "bool",
          "name": "",
          "type": "bool"
        }
      ],
      "stateMutability": "view",
      "type": "function"
    },
    {
      "inputs": [
        {
          "internalType": "bytes32",
          "name": "encrMove",
          "type": "bytes32"
        }
      ],
      "name": "play",
      "outputs": [
        {
          "internalType": "bool",
          "name": "",
          "type": "bool"
        }
      ],
      "stateMutability": "nonpayable",
      "type": "function"
    },
    {
      "inputs": [],
      "name": "register",
      "outputs": [
        {
          "internalType": "uint256",
          "name": "",
          "type": "uint256"
        }
      ],
      "stateMutability": "payable",
      "type": "function"
    },
    {
      "inputs": [
        {
          "internalType": "string",
          "name": "clearMove",
          "type": "string"
        }
      ],
      "name": "reveal",
      "outputs": [
        {
          "internalType": "enum RockPaperScissors.Moves",
          "name": "",
          "type": "uint8"
        }
      ],
      "stateMutability": "nonpayable",
      "type": "function"
    },
    {
      "inputs": [],
      "name": "timeout",
      "outputs": [
        {
          "internalType": "uint256",
          "name": "",
          "type": "uint256"
        }
      ],
      "stateMutability": "view",
      "type": "function"
    },
    {
      "inputs": [],
      "name": "whoAmI",
      "outputs": [
        {
          "internalType": "uint256",
          "name": "",
          "type": "uint256"
        }
      ],
      "stateMutability": "view",
      "type": "function"
    }
  ],
  "bytecode": {
    "object": "0x608060405261025860025534801561001657600080fd5b506133af806100266000396000f3fe60806040526004361061014b5760003560e01c80636f9fb98a116100b6578063c7a1865b1161006f578063c7a1865b1461032f578063d347c04c1461034f578063da46cc2d14610364578063da91254c14610379578063ee198ce01461038e578063fe88d82a146103a357600080fd5b80636f9fb98a146102b057806370dea79a146102c55780637e7e4b47146102db578063807c8504146102f057806396d9b96a146103055780639d2457191461031a57600080fd5b80633f061259116101085780633f061259146101de57806343445ca8146102125780634c261247146102375780635afe0dd51461026457806361ae1947146102795780636b07bd891461029b57600080fd5b80631aa3a008146101505780631d73c64c1461016b5780631ea38c3b146101815780632626ab08146101985780632fc75113146101b35780633d6ae3a7146101c8575b600080fd5b6101586103b8565b6040519081526020015b60405180910390f35b34801561017757600080fd5b5061015860005481565b34801561018d57600080fd5b5061019661079d565b005b3480156101a457600080fd5b50610158662386f26fc1000081565b3480156101bf57600080fd5b50610196610d78565b3480156101d457600080fd5b5061015861025881565b3480156101ea57600080fd5b506101fe6101f9366004612dff565b611369565b604051610162989796959493929190612e4c565b34801561021e57600080fd5b506102276113cf565b6040519015158152602001610162565b34801561024357600080fd5b50610257610252366004612eb7565b61151d565b6040516101629190612f68565b34801561027057600080fd5b50610227611836565b34801561028557600080fd5b5061028e61189d565b6040516101629190612fcb565b3480156102a757600080fd5b5061019661192f565b3480156102bc57600080fd5b50610158611e13565b3480156102d157600080fd5b5061015860025481565b3480156102e757600080fd5b50610257611efb565b3480156102fc57600080fd5b5061022761229a565b34801561031157600080fd5b5061028e61242c565b34801561032657600080fd5b5061028e61243b565b34801561033b57600080fd5b5061022761034a366004612dff565b612490565b34801561035b57600080fd5b5061028e612596565b34801561037057600080fd5b5061028e6126a4565b34801561038557600080fd5b506101586127cc565b34801561039a57600080fd5b5061028e6127dc565b3480156103af57600080fd5b5061028e61285e565b600a546000906103ca90600290612fe5565b6000036103ea57662386f26fc100003410156103e557600080fd5b61043d565b600a54662386f26fc1000034108015906104325750600a61040c60018361301d565b8154811061041c5761041c613036565b9060005260206000209060080201600201543410155b61043b57600080fd5b505b600a5461044b600282612fe5565b1561049257600a61045d60018361301d565b8154811061046d5761046d613036565b60009182526020909120600890910201546001600160a01b0316330361049257600080fd5b604080516101008101825233815260006020820181815234938301938452606083018281526080840183815260a0850184905260c0850184905260e08501849052600a80546001808201835591909552855160089095027fc65a7bb8d6351c1cf70c95a316cc6a92839c986682d98bc35f958f4883f9d2a8810180546001600160a01b039788166001600160a01b031991821617825595517fc65a7bb8d6351c1cf70c95a316cc6a92839c986682d98bc35f958f4883f9d2a9830180549190981696169590951790955595517fc65a7bb8d6351c1cf70c95a316cc6a92839c986682d98bc35f958f4883f9d2aa85015590517fc65a7bb8d6351c1cf70c95a316cc6a92839c986682d98bc35f958f4883f9d2ab840155517fc65a7bb8d6351c1cf70c95a316cc6a92839c986682d98bc35f958f4883f9d2ac909201805493949193909160ff19909116908360038111156105ee576105ee612e18565b021790555060a0820151600582015560c0820151600682015560e090910151600790910155600a5461061f9061286d565b600a5461062e90600290612fe5565b60000361075557600a805490339061064760028461301d565b8154811061065757610657613036565b6000918252602090912060089091020160010180546001600160a01b0319166001600160a01b0392909216919091179055600a61069560028361301d565b815481106106a5576106a5613036565b60009182526020909120600890910201546001600160a01b0316600a6106cc60018461301d565b815481106106dc576106dc613036565b60009182526020909120600890910201600190810180546001600160a01b0319166001600160a01b039390931692909217909155600a8054429261071f9161301d565b8154811061072f5761072f613036565b906000526020600020906008020160050181905550600260058190555060029250505090565b600a80544291906107689060019061301d565b8154811061077857610778613036565b9060005260206000209060080201600501819055506001600581905550600191505090565b6000806107a9336128b5565b90506000816127101461081c57600a82815481106107c9576107c9613036565b9060005260206000209060080201600701549250610815600a83815481106107f3576107f3613036565b60009182526020909120600160089092020101546001600160a01b03166128b5565b9050610858565b604080518082019091526012815271526567697374657220796f75722067616d6560701b602082015260099061085290826130c6565b50505050565b826000036108945760408051808201909152601081526f52657665616c20796f7572206d6f766560801b602082015260099061085290826130c6565b80612710141580156108cb5750600a81815481106108b4576108b4613036565b906000526020600020906008020160070154600014155b15610cbf57600080600a84815481106108e6576108e6613036565b6000918252602090912060089091020154600a80546001600160a01b039092169350908490811061091957610919613036565b600091825260208220600890910201546001600160a01b03169150600a858154811061094757610947613036565b600091825260209091206004600890920201015460ff16600381111561096f5761096f612e18565b141580156109b857506000600a858154811061098d5761098d613036565b600091825260209091206004600890920201015460ff1660038111156109b5576109b5612e18565b14155b156109e557604051806060016040528060268152602001613354602691396009906109e390826130c6565b505b6078600a85815481106109fa576109fa613036565b906000526020600020906008020160070154600a8581548110610a1f57610a1f613036565b906000526020600020906008020160070154610a3b919061301d565b1115610b5d57816001600160a01b03166108fc600a8581548110610a6157610a61613036565b906000526020600020906008020160020154600a8781548110610a8657610a86613036565b906000526020600020906008020160020154610aa29190613186565b6040518115909202916000818181858888f19350505050158015610aca573d6000803e3d6000fd5b50610b096040518060400160405280602081526020017f536869667465642062616c616e6365732064756520746f2074696d65206f757481525061291c565b610b1161295f565b6040518060400160405280602081526020017f536869667465642062616c616e6365732064756520746f2074696d65206f757481525060099081610b5591906130c6565b505050505050565b6078600a8481548110610b7257610b72613036565b906000526020600020906008020160070154600a8681548110610b9757610b97613036565b906000526020600020906008020160070154610bb3919061301d565b1115610c8157806001600160a01b03166108fc600a8581548110610bd957610bd9613036565b906000526020600020906008020160020154600a8781548110610bfe57610bfe613036565b906000526020600020906008020160020154610c1a9190613186565b6040518115909202916000818181858888f19350505050158015610c42573d6000803e3d6000fd5b50610b116040518060400160405280602081526020017f536869667465642062616c616e6365732064756520746f2074696d65206f757481525061291c565b60408051808201909152601a815279121bdb19081bdb8848151a195c9949dcc81d1a5b59481b19599d60321b6020820152600990610b5590826130c6565b6078610ccb844261301d565b1115610d3557610d0733600a610ce0336128b5565b81548110610cf057610cf0613036565b906000526020600020906008020160020154612af8565b610d0f61295f565b6040518060600160405280603681526020016132bc6036913960099061085290826130c6565b60408051808201909152601a815279121bdb19081bdb8848151a195c9949dcc8151a5b59481b19599d60321b602082015260099061085290826130c6565b505050565b600080600080610d87336128b5565b90508061271014610df057600a8181548110610da557610da5613036565b9060005260206000209060080201600501549350600a8181548110610dcc57610dcc613036565b60009182526020909120600160089092020101546001600160a01b03169150610e2d565b604080518082019091526012815271526567697374657220796f75722067616d6560701b6020820152600790610e2690826130c6565b5050505050565b83600003610e6b57604080518082019091526012815271526567697374657220796f75722067616d6560701b6020820152600790610e2690826130c6565b6001600160a01b0382161561114f576000610e85836128b5565b9050600a8181548110610e9a57610e9a613036565b9060005260206000209060080201600501549350600a8281548110610ec157610ec1613036565b906000526020600020906008020160020154600014158015610f085750600a8181548110610ef157610ef1613036565b906000526020600020906008020160020154600014155b15610f33576040518060600160405280602f8152602001613266602f9139600790610b5590826130c6565b6078610f3f868661301d565b1180610f5457506078610f52858761301d565b115b156110bd57600080600a8481548110610f6f57610f6f613036565b6000918252602090912060089091020154600a80546001600160a01b0390921693509084908110610fa257610fa2613036565b906000526020600020906008020160000160009054906101000a90046001600160a01b03169050816001600160a01b03166108fc600a8681548110610fe957610fe9613036565b9060005260206000209060080201600201549081150290604051600060405180830381858888f19350505050158015611026573d6000803e3d6000fd5b50806001600160a01b03166108fc600a858154811061104757611047613036565b9060005260206000209060080201600201549081150290604051600060405180830381858888f19350505050158015611084573d6000803e3d6000fd5b5061108d61295f565b6040518060600160405280602f8152602001613237602f91396007906110b390826130c6565b5050505050505050565b600a82815481106110d0576110d0613036565b9060005260206000209060080201600301546000801b14611111576040518060600160405280602f8152602001613266602f9139600790610b5590826130c6565b60408051808201909152601a815279121bdb19081bdb8848151a195c9949dcc81d1a5b59481b19599d60321b6020820152600790610b5590826130c6565b607861115b854261301d565b11156112a7576000600a828154811061117657611176613036565b6000918252602090912060089091020154600a80546001600160a01b0390921692506111cb91849081106111ac576111ac613036565b60009182526020909120600890910201546001600160a01b0316612b2e565b6111fa604051806040016040528060068152602001654265666f726560d01b8152506111f5611e13565b612b76565b61120381612b2e565b61121a81600a8481548110610cf057610cf0613036565b6112436040518060400160405280600581526020016420b33a32b960d91b8152506111f5611e13565b6112726040518060400160405280600e81526020016d52657475726e6564206d6f6e657960901b81525061291c565b61127a61295f565b6040518060600160405280603681526020016132bc603691396007906112a090826130c6565b5050610852565b6112db604051806040016040528060138152602001720213637b1b5903a34b6b2b9ba30b6b81034b99606d1b81525061291c565b6112e44261286d565b6113226040518060400160405280601b81526020017f54696d6520647572696e6720726567697374726174696f6e206973000000000081525061291c565b61132b8461286d565b60408051808201909152601a815279121bdb19081bdb8848151a195c9949dcc8151a5b59481b19599d60321b6020820152600790610e2690826130c6565b600a818154811061137957600080fd5b6000918252602090912060089091020180546001820154600283015460038401546004850154600586015460068701546007909701546001600160a01b03968716985094909516959294919360ff909116929088565b600080806113dc336128b5565b9050806127101461146657600a81815481106113fa576113fa613036565b600091825260208220600160089092020101546001600160a01b03169250600a828154811061142b5761142b613036565b600091825260209091206004600890920201015460ff16600381111561145357611453612e18565b036114615760009250505090565b6114a2565b611499604051806040016040528060128152602001713cb7ba903234b2373a103932b3b4b9ba32b960711b81525061291c565b60009250505090565b60006114ad836128b5565b90508061271014611509576000600a82815481106114cd576114cd613036565b600091825260209091206004600890920201015460ff1660038111156114f5576114f5612e18565b03611504576000935050505090565b611513565b6000935050505090565b6001935050505090565b6000808080808061152d336128b5565b905080612710146115cd57600a818154811061154b5761154b613036565b6000918252602090912060089091020154600a80546001600160a01b039092169650908290811061157e5761157e613036565b906000526020600020906008020160010160009054906101000a90046001600160a01b03169350600a81815481106115b8576115b8613036565b90600052602060002090600802016003015492505b60006115d8856128b5565b9050806127101461160b57600a81815481106115f6576115f6613036565b90600052602060002090600802016003015492505b831580159061161957508215155b61162257600080fd5b600061162d336128b5565b9050806127101461181f57600060028a60405160200161164d9190613199565b60408051601f198184030181529082905261166791613199565b602060405180830381855afa158015611684573d6000803e3d6000fd5b5050506040513d601f19601f820116820180604052508101906116a791906131b5565b905060006116b48b612bbb565b60038111156116c5576116c5612e18565b905042600a84815481106116db576116db613036565b6000918252602082206007600890920201019190915581600381111561170357611703612e18565b0361171f5750506006805461ff0019169055506000965061182b565b81600a848154811061173357611733613036565b906000526020600020906008020160030154036118185780600a848154811061175e5761175e613036565b60009182526020909120600460089092020101805460ff1916600183600381111561178b5761178b612e18565b02179055506117ce6040518060400160405280601c81526020017f776f726b696e6720696e2072657665616c2d7375636365737366756c0000000081525061291c565b6117e88160038111156117e3576117e3612e18565b61286d565b6006805482919061ff00191661010083600381111561180957611809612e18565b0217905550985061182b915050565b5050611829565b600097505061182b565b505b505050505050919050565b600080611842336128b5565b905080612710146118955760006001600160a01b0316600a828154811061186b5761186b613036565b60009182526020909120600160089092020101546001600160a01b03161461189557600191505090565b600091505090565b6060600980546118ac9061304c565b80601f01602080910402602001604051908101604052809291908181526020018280546118d89061304c565b80156119255780601f106118fa57610100808354040283529160200191611925565b820191906000526020600020905b81548152906001019060200180831161190857829003601f168201915b5050505050905090565b60008060008061193e336128b5565b905080612710146119a757600a818154811061195c5761195c613036565b9060005260206000209060080201600601549350600a818154811061198357611983613036565b60009182526020909120600160089092020101546001600160a01b031691506119dd565b604080518082019091526012815271526567697374657220796f75722067616d6560701b6020820152600890610e2690826130c6565b83600003611a165760408051808201909152600d81526c506c6179207468652067616d6560981b6020820152600890610e2690826130c6565b6000611a21836128b5565b90506001600160a01b03831615801590611a605750600a8181548110611a4957611a49613036565b906000526020600020906008020160060154600014155b15611d3b57600a8181548110611a7857611a78613036565b9060005260206000209060080201600601549350600a8281548110611a9f57611a9f613036565b9060005260206000209060080201600301546000801b14158015611aea5750600a8181548110611ad157611ad1613036565b9060005260206000209060080201600301546000801b14155b15611b15576040518060600160405280602d815260200161320a602d9139600890610b5590826130c6565b6078611b21868661301d565b1180611b3657506078611b34858761301d565b115b15611c9557600080600a8481548110611b5157611b51613036565b6000918252602090912060089091020154600a80546001600160a01b0390921693509084908110611b8457611b84613036565b906000526020600020906008020160000160009054906101000a90046001600160a01b03169050816001600160a01b03166108fc600a8681548110611bcb57611bcb613036565b9060005260206000209060080201600201549081150290604051600060405180830381858888f19350505050158015611c08573d6000803e3d6000fd5b50806001600160a01b03166108fc600a8581548110611c2957611c29613036565b9060005260206000209060080201600201549081150290604051600060405180830381858888f19350505050158015611c66573d6000803e3d6000fd5b50611c6f61295f565b6040518060600160405280602f8152602001613237602f91396008906110b390826130c6565b6000600a8381548110611caa57611caa613036565b600091825260209091206004600890920201015460ff166003811115611cd257611cd2612e18565b14611cfd576040518060600160405280602b81526020016132f2602b9139600890610b5590826130c6565b60408051808201909152601a815279121bdb19081bdb8848151a195c9949dcc81d1a5b59481b19599d60321b6020820152600890610b5590826130c6565b611d686040518060400160405280600c81526020016b125b88195b1cd9481c185c9d60a21b81525061291c565b6078611d74864261301d565b1115611dd557336000611d86826128b5565b9050611d9f82600a8381548110610cf057610cf0613036565b611da761295f565b6040518060600160405280603681526020016132bc60369139600890611dcd90826130c6565b505050610e26565b60408051808201909152601a815279121bdb19081bdb8848151a195c9949dcc8151a5b59481b19599d60321b6020820152600890610b5590826130c6565b6000808080611e21336128b5565b90508061271014611e9957600a8181548110611e3f57611e3f613036565b906000526020600020906008020160010160009054906101000a90046001600160a01b03169150600a8181548110611e7957611e79613036565b90600052602060002090600802016002015483611e969190613186565b92505b6001600160a01b03821615611ef3576000611eb3836128b5565b90508061271014611ef157600a8181548110611ed157611ed1613036565b90600052602060002090600802016002015484611eee9190613186565b93505b505b509092915050565b60008080808080611f0b336128b5565b90508061271014611fc457600a8181548110611f2957611f29613036565b6000918252602090912060089091020154600a80546001600160a01b0390921696509082908110611f5c57611f5c613036565b906000526020600020906008020160010160009054906101000a90046001600160a01b03169350600a8181548110611f9657611f96613036565b600091825260209091206004600890920201015460ff169250611fc48360038111156117e3576117e3612e18565b6000611fcf856128b5565b9050806127101461200757600a8181548110611fed57611fed613036565b600091825260209091206004600890920201015460ff1692505b600084600381111561201b5761201b612e18565b1415801561203b5750600083600381111561203857612038612e18565b14155b61204457600080fd5b600080600080600080612056336128b5565b9050600a818154811061206b5761206b613036565b6000918252602090912060089091020154600a80546001600160a01b039092169550908290811061209e5761209e613036565b906000526020600020906008020160010160009054906101000a90046001600160a01b03169250600a81815481106120d8576120d8613036565b6000918252602082206004600890920201015460ff1696506120f9846128b5565b9050600a818154811061210e5761210e613036565b600091825260209091206004600890920201015460ff16955085600381111561213957612139612e18565b87600381111561214b5761214b612e18565b036121595760039250612247565b600187600381111561216d5761216d612e18565b14801561218b5750600386600381111561218957612189612e18565b145b806121c3575060028760038111156121a5576121a5612e18565b1480156121c3575060018660038111156121c1576121c1612e18565b145b806121fb575060038760038111156121dd576121dd612e18565b1480156121fb575060028660038111156121f9576121f9612e18565b145b806122345750600087600381111561221557612215612e18565b141580156122345750600086600381111561223257612232612e18565b145b156122425760019250612247565b600292505b84846122568282868689612c42565b61225e61295f565b600d805486919062ff000019166201000083600381111561228157612281612e18565b0217905550939e50505050505050505050505050505090565b600080806122a7336128b5565b9050806127101461146657600a81815481106122c5576122c5613036565b906000526020600020906008020160010160009054906101000a90046001600160a01b03169150600a81815481106122ff576122ff613036565b9060005260206000209060080201600301546000801b03612349576114996040518060400160405280600e81526020016d796f75206469646e7420706c617960901b81525061291c565b6000612354836128b5565b905080612710146123c657600a818154811061237257612372613036565b9060005260206000209060080201600301546000801b036123c157611509604051806040016040528060138152602001726f70706f6e656e74206469646e7420706c617960681b81525061291c565b612404565b6115096040518060400160405280601781526020017f6f70706f6e656e74206469646e7420726567697374657200000000000000000081525061291c565b611513604051806040016040528060078152602001665375636365737360c81b81525061291c565b6060600880546118ac9061304c565b60606005546001036124655760405180606001604052806037815260200161331d60379139905090565b60055460020361248d5760405180606001604052806027815260200161329560279139905090565b90565b60008061249c336128b5565b905080612710146125845760006001600160a01b0316600a82815481106124c5576124c5613036565b60009182526020909120600160089092020101546001600160a01b0316148015906125165750600a81815481106124fe576124fe613036565b9060005260206000209060080201600301546000801b145b156125845782600a828154811061252f5761252f613036565b60009182526020909120600360089092020101556006805460ff19166001179055600a80544291908390811061256757612567613036565b600091825260209091206006600890920201015550600192915050565b50506006805460ff1916905550600090565b600654606090610100900460ff1660038111156125b5576125b5612e18565b6000036125de5750604080518082019091526007815266125b9d985b1a5960ca1b602082015290565b600654610100900460ff1660038111156125fa576125fa612e18565b60010361262a575060408051808201909152600e81526d52657665616c65643a20526f636b60901b602082015290565b600654610100900460ff16600381111561264657612646612e18565b600203612677575060408051808201909152600f81526e2932bb32b0b632b21d102830b832b960891b602082015290565b5060408051808201909152601281527152657665616c65643a2053636973736f727360701b602082015290565b600d5460609062010000900460ff1660038111156126c4576126c4612e18565b6000036126ed5750604080518082019091526007815266125b9d985b1a5960ca1b602082015290565b600d5462010000900460ff16600381111561270a5761270a612e18565b600103612738575060408051808201909152600c81526b283630bcb2b91018903bb7b760a11b602082015290565b600d5462010000900460ff16600381111561275557612755612e18565b600203612783575060408051808201909152600c81526b283630bcb2b91019103bb7b760a11b602082015290565b600d5462010000900460ff1660038111156127a0576127a0612e18565b60030361248d575060408051808201909152600a81526923b0b6b290223930bbb760b11b602082015290565b60006127d7336128b5565b905090565b60065460609060ff161515600103612826575060408051808201909152601c81527f5375636365737366756c6c792073746f72656420746865206d6f766500000000602082015290565b5060408051808201909152601d81527f4661696c656420746f2073746f72652074686520706c6179206d6f7665000000602082015290565b6060600780546118ac9061304c565b6128b28160405160240161288391815260200190565b60408051601f198184030181529190526020810180516001600160e01b031663f5b1bba960e01b179052612dde565b50565b6000805b600a5481101561291257600a81815481106128d6576128d6613036565b60009182526020909120600890910201546001600160a01b03908116908416036129005792915050565b8061290a816131ce565b9150506128b9565b5061271092915050565b6128b2816040516024016129309190612fcb565b60408051601f198184030181529190526020810180516001600160e01b031663104c13eb60e21b179052612dde565b60008061296b336128b5565b9050600a818154811061298057612980613036565b60009182526020909120600160089092020101546001600160a01b031691508115612a8a5760006129b0836128b5565b9050600a82815481106129c5576129c5613036565b60009182526020822060089091020180546001600160a01b031990811682556001820180549091169055600281018290556003810182905560048101805460ff19169055600581018290556006810182905560070155600a805482908110612a2f57612a2f613036565b60009182526020822060089091020180546001600160a01b031990811682556001820180549091169055600281018290556003810182905560048101805460ff19169055600581018290556006810182905560070155505050565b600a8181548110612a9d57612a9d613036565b60009182526020822060089091020180546001600160a01b031990811682556001820180549091169055600281018290556003810182905560048101805460ff191690556005810182905560068101829055600701555b5050565b6040516001600160a01b0383169082156108fc029083906000818181858888f19350505050158015610d73573d6000803e3d6000fd5b6040516001600160a01b03821660248201526128b29060440160408051601f198184030181529190526020810180516001600160e01b031663161765e160e11b179052612dde565b612af48282604051602401612b8c9291906131e7565b60408051601f198184030181529190526020810180516001600160e01b03166309710a9d60e41b179052612dde565b60008082600081518110612bd157612bd1613036565b01602001516001600160f81b0319169050603160f81b819003612bf75750600192915050565b6001600160f81b03198116601960f91b03612c155750600292915050565b6001600160f81b03198116603360f81b03612c335750600392915050565b50600092915050565b50919050565b6001816003811115612c5657612c56612e18565b03612cea57846001600160a01b03166108fc600a8481548110612c7b57612c7b613036565b906000526020600020906008020160020154600a8681548110612ca057612ca0613036565b906000526020600020906008020160020154612cbc9190613186565b6040518115909202916000818181858888f19350505050158015612ce4573d6000803e3d6000fd5b50610e26565b6002816003811115612cfe57612cfe612e18565b03612d2357836001600160a01b03166108fc600a8481548110612c7b57612c7b613036565b846001600160a01b03166108fc600a8581548110612d4357612d43613036565b9060005260206000209060080201600201549081150290604051600060405180830381858888f19350505050158015612d80573d6000803e3d6000fd5b50836001600160a01b03166108fc600a8481548110612da157612da1613036565b9060005260206000209060080201600201549081150290604051600060405180830381858888f19350505050158015610b55573d6000803e3d6000fd5b80516a636f6e736f6c652e6c6f67602083016000808483855afa5050505050565b600060208284031215612e1157600080fd5b5035919050565b634e487b7160e01b600052602160045260246000fd5b600481106128b257634e487b7160e01b600052602160045260246000fd5b6001600160a01b0389811682528816602082015260408101879052606081018690526101008101612e7c86612e2e565b8560808301528460a08301528360c08301528260e08301529998505050505050505050565b634e487b7160e01b600052604160045260246000fd5b600060208284031215612ec957600080fd5b813567ffffffffffffffff80821115612ee157600080fd5b818401915084601f830112612ef557600080fd5b813581811115612f0757612f07612ea1565b604051601f8201601f19908116603f01168101908382118183101715612f2f57612f2f612ea1565b81604052828152876020848701011115612f4857600080fd5b826020860160208301376000928101602001929092525095945050505050565b60208101612f7583612e2e565b91905290565b60005b83811015612f96578181015183820152602001612f7e565b50506000910152565b60008151808452612fb7816020860160208601612f7b565b601f01601f19169290920160200192915050565b602081526000612fde6020830184612f9f565b9392505050565b60008261300257634e487b7160e01b600052601260045260246000fd5b500690565b634e487b7160e01b600052601160045260246000fd5b8181038181111561303057613030613007565b92915050565b634e487b7160e01b600052603260045260246000fd5b600181811c9082168061306057607f821691505b602082108103612c3c57634e487b7160e01b600052602260045260246000fd5b601f821115610d7357600081815260208120601f850160051c810160208610156130a75750805b601f850160051c820191505b81811015610b55578281556001016130b3565b815167ffffffffffffffff8111156130e0576130e0612ea1565b6130f4816130ee845461304c565b84613080565b602080601f83116001811461312957600084156131115750858301515b600019600386901b1c1916600185901b178555610b55565b600085815260208120601f198616915b8281101561315857888601518255948401946001909101908401613139565b50858210156131765787850151600019600388901b60f8161c191681555b5050505050600190811b01905550565b8082018082111561303057613030613007565b600082516131ab818460208701612f7b565b9190910192915050565b6000602082840312156131c757600080fd5b5051919050565b6000600182016131e0576131e0613007565b5060010190565b6040815260006131fa6040830185612f9f565b9050826020830152939250505056fe506c617920706861736520646f6e652c2070726f6365656420746f207468652072657665616c2070686173652154696d656f7574202d2072657475726e6564207468652062616c616e63657320746f20796f7572206163636f756e74526567697374657220506861736520446f6e652c2050726f63656564207769746820746865206e657874206f6e6521526567697374726174696f6e207375636365737366756c2e20506c6179207468652067616d652e54696d6564206f75742c206e6f206f70706f6e656e74206d6174636865642e205265747572696e6720796f7572206465706f7369742e506c617920506861736520446f6e652c2050726f63656564207769746820746865206e657874206f6e6521526567697374726174696f6e205375636365737366756c2e205761697420666f7220746865206f70706f6e656e7420746f206a6f696e2e50726f6365656420746f2067657420746865206f7574636f6d65206f66207468652067616d65a264697066735822122047feb9dad0fcbe9ce17d009aa963193c50e9735685c2029c39bdebabadc39dd464736f6c63430008130033",
    "linkReferences": {}
  },
  "methodIdentifiers": {
    "BET_MIN()": "2626ab08",
    "REVEAL_TIMEOUT()": "3d6ae3a7",
    "bothPlayed()": "807c8504",
    "bothRevealed()": "43445ca8",
    "checkTimeout_play()": "6b07bd89",
    "checkTimeout_play_fe()": "96d9b96a",
    "checkTimeout_register()": "2fc75113",
    "checkTimeout_register_fe()": "fe88d82a",
    "checkTimeout_reveal()": "1ea38c3b",
    "checkTimeout_reveal_fe()": "61ae1947",
    "getContractBalance()": "6f9fb98a",
    "getFinalOutput()": "da46cc2d",
    "getOutcome()": "7e7e4b47",
    "getPlayOutput()": "ee198ce0",
    "getRegisterValue()": "9d245719",
    "getRevealOutput()": "d347c04c",
    "initialBet()": "1d73c64c",
    "listOfPlayers(uint256)": "3f061259",
    "opponentJoined()": "5afe0dd5",
    "play(bytes32)": "c7a1865b",
    "register()": "1aa3a008",
    "reveal(string)": "4c261247",
    "timeout()": "70dea79a",
    "whoAmI()": "da91254c"
  },
  "id": 17
}