{
  "abi": [
    {
      "inputs": [],
      "name": "BET_MIN",
      "outputs": [
        {
          "internalType": "uint256",
          "name": "",
          "type": "uint256"
        }
      ],
      "stateMutability": "view",
      "type": "function"
    },
    {
      "inputs": [],
      "name": "REVEAL_TIMEOUT",
      "outputs": [
        {
          "internalType": "uint256",
          "name": "",
          "type": "uint256"
        }
      ],
      "stateMutability": "view",
      "type": "function"
    },
    {
      "inputs": [],
      "name": "bothPlayed",
      "outputs": [
        {
          "internalType": "bool",
          "name": "",
          "type": "bool"
        }
      ],
      "stateMutability": "view",
      "type": "function"
    },
    {
      "inputs": [],
      "name": "bothRevealed",
      "outputs": [
        {
          "internalType": "bool",
          "name": "",
          "type": "bool"
        }
      ],
      "stateMutability": "view",
      "type": "function"
    },
    {
      "inputs": [],
      "name": "getContractBalance",
      "outputs": [
        {
          "internalType": "uint256",
          "name": "",
          "type": "uint256"
        }
      ],
      "stateMutability": "view",
      "type": "function"
    },
    {
      "inputs": [],
      "name": "getFinalOutput",
      "outputs": [
        {
          "internalType": "string",
          "name": "",
          "type": "string"
        }
      ],
      "stateMutability": "view",
      "type": "function"
    },
    {
      "inputs": [],
      "name": "getOutcome",
      "outputs": [
        {
          "internalType": "enum RockPaperScissors.Outcomes",
          "name": "",
          "type": "uint8"
        }
      ],
      "stateMutability": "nonpayable",
      "type": "function"
    },
    {
      "inputs": [],
      "name": "getPlayOutput",
      "outputs": [
        {
          "internalType": "string",
          "name": "",
          "type": "string"
        }
      ],
      "stateMutability": "view",
      "type": "function"
    },
    {
      "inputs": [],
      "name": "getRegisterValue",
      "outputs": [
        {
          "internalType": "string",
          "name": "",
          "type": "string"
        }
      ],
      "stateMutability": "view",
      "type": "function"
    },
    {
      "inputs": [],
      "name": "getRevealOutput",
      "outputs": [
        {
          "internalType": "string",
          "name": "",
          "type": "string"
        }
      ],
      "stateMutability": "view",
      "type": "function"
    },
    {
      "inputs": [],
      "name": "initialBet",
      "outputs": [
        {
          "internalType": "uint256",
          "name": "",
          "type": "uint256"
        }
      ],
      "stateMutability": "view",
      "type": "function"
    },
    {
      "inputs": [
        {
          "internalType": "uint256",
          "name": "",
          "type": "uint256"
        }
      ],
      "name": "listOfPlayers",
      "outputs": [
        {
          "internalType": "address",
          "name": "MyAddr",
          "type": "address"
        },
        {
          "internalType": "address",
          "name": "OppAddr",
          "type": "address"
        },
        {
          "internalType": "uint256",
          "name": "bet",
          "type": "uint256"
        },
        {
          "internalType": "bytes32",
          "name": "encryptedMove",
          "type": "bytes32"
        },
        {
          "internalType": "enum RockPaperScissors.Moves",
          "name": "movePlayer",
          "type": "uint8"
        }
      ],
      "stateMutability": "view",
      "type": "function"
    },
    {
      "inputs": [],
      "name": "opponentJoined",
      "outputs": [
        {
          "internalType": "bool",
          "name": "",
          "type": "bool"
        }
      ],
      "stateMutability": "view",
      "type": "function"
    },
    {
      "inputs": [
        {
          "internalType": "bytes32",
          "name": "encrMove",
          "type": "bytes32"
        }
      ],
      "name": "play",
      "outputs": [
        {
          "internalType": "bool",
          "name": "",
          "type": "bool"
        }
      ],
      "stateMutability": "nonpayable",
      "type": "function"
    },
    {
      "inputs": [],
      "name": "register",
      "outputs": [
        {
          "internalType": "uint256",
          "name": "",
          "type": "uint256"
        }
      ],
      "stateMutability": "payable",
      "type": "function"
    },
    {
      "inputs": [
        {
          "internalType": "string",
          "name": "clearMove",
          "type": "string"
        }
      ],
      "name": "reveal",
      "outputs": [
        {
          "internalType": "enum RockPaperScissors.Moves",
          "name": "",
          "type": "uint8"
        }
      ],
      "stateMutability": "nonpayable",
      "type": "function"
    },
    {
      "inputs": [],
      "name": "revealTimeLeft",
      "outputs": [
        {
          "internalType": "int256",
          "name": "",
          "type": "int256"
        }
      ],
      "stateMutability": "view",
      "type": "function"
    },
    {
      "inputs": [],
      "name": "whoAmI",
      "outputs": [
        {
          "internalType": "uint256",
          "name": "",
          "type": "uint256"
        }
      ],
      "stateMutability": "view",
      "type": "function"
    }
  ],
  "bytecode": {
    "object": "0x608060405234801561001057600080fd5b506126af806100206000396000f3fe6080604052600436106101095760003560e01c80636f9fb98a11610095578063c7a1865b11610064578063c7a1865b1461027e578063d347c04c1461029e578063da46cc2d146102b3578063da91254c146102c8578063ee198ce0146102dd57600080fd5b80636f9fb98a1461021d5780637e7e4b4714610232578063807c8504146102475780639d2457191461025c57600080fd5b80633f061259116100dc5780633f0612591461017057806343445ca8146101a15780634c261247146101c657806351dcb1c3146101f35780635afe0dd51461020857600080fd5b80631aa3a0081461010e5780631d73c64c146101295780632626ab081461013f5780633d6ae3a71461015a575b600080fd5b6101166102f2565b6040519081526020015b60405180910390f35b34801561013557600080fd5b5061011660005481565b34801561014b57600080fd5b50610116662386f26fc1000081565b34801561016657600080fd5b5061011661025881565b34801561017c57600080fd5b5061019061018b366004612396565b61062c565b6040516101209594939291906123e3565b3480156101ad57600080fd5b506101b661067c565b6040519015158152602001610120565b3480156101d257600080fd5b506101e66101e1366004612438565b6108eb565b60405161012091906124e9565b3480156101ff57600080fd5b50610116610e09565b34801561021457600080fd5b506101b6610e3c565b34801561022957600080fd5b50610116610ee8565b34801561023e57600080fd5b506101e66110cc565b34801561025357600080fd5b506101b6611623565b34801561026857600080fd5b50610271611942565b6040516101209190612520565b34801561028a57600080fd5b506101b6610299366004612396565b611997565b3480156102aa57600080fd5b50610271611a72565b3480156102bf57600080fd5b50610271611b80565b3480156102d457600080fd5b50610116611ca8565b3480156102e957600080fd5b50610271611d84565b60045460009061030490600290612553565b60000361032457662386f26fc1000034101561031f57600080fd5b610377565b600454662386f26fc10000341080159061036c5750600461034660018361258b565b81548110610356576103566125a4565b9060005260206000209060050201600201543410155b61037557600080fd5b505b600454610385600282612553565b156103cc57600461039760018361258b565b815481106103a7576103a76125a4565b60009182526020909120600590910201546001600160a01b031633036103cc57600080fd5b6040805160a081018252338152600060208201818152349383019384526060830182815260808401838152600480546001808201835591909552855160059095027f8a35acfbc15ff81a39ae7d344fd709f28e8600b4aa8c65c6b64bfe7fe36bd19b810180546001600160a01b03199081166001600160a01b0398891617825595517f8a35acfbc15ff81a39ae7d344fd709f28e8600b4aa8c65c6b64bfe7fe36bd19c8301805490971697169690961790945595517f8a35acfbc15ff81a39ae7d344fd709f28e8600b4aa8c65c6b64bfe7fe36bd19d84015590517f8a35acfbc15ff81a39ae7d344fd709f28e8600b4aa8c65c6b64bfe7fe36bd19e830155517f8a35acfbc15ff81a39ae7d344fd709f28e8600b4aa8c65c6b64bfe7fe36bd19f9091018054939492939192909160ff191690836003811115610511576105116123af565b0217905550506004546105249150611e06565b60045461053390600290612553565b600003610620576004805490339061054c60028461258b565b8154811061055c5761055c6125a4565b6000918252602090912060059091020160010180546001600160a01b0319166001600160a01b0392909216919091179055600461059a60028361258b565b815481106105aa576105aa6125a4565b60009182526020909120600590910201546001600160a01b031660046105d160018461258b565b815481106105e1576105e16125a4565b6000918252602090912060059091020160010180546001600160a01b0319166001600160a01b0392909216919091179055505060026008819055919050565b50506001600881905590565b6004818154811061063c57600080fd5b6000918252602090912060059091020180546001820154600283015460038401546004909401546001600160a01b03938416955091909216929060ff1685565b60008080805b60045481101561077e576000600482815481106106a1576106a16125a4565b60009182526020918290206040805160a081018252600590930290910180546001600160a01b0390811684526001820154169383019390935260028301549082015260038083015460608301526004830154919291608084019160ff90911690811115610710576107106123af565b6003811115610721576107216123af565b90525080519091506001600160a01b0316330361076b57602081015193506001925060008160800151600381111561075b5761075b6123af565b0361076b57600094505050505090565b5080610776816125ba565b915050610682565b508015156000036107c6576107bd604051806040016040528060138152602001723cb7ba903234b2373a103932b3b4b9ba32b91960691b815250611e4e565b60009250505090565b6000805b6004548110156108cc576000600482815481106107e9576107e96125a4565b60009182526020918290206040805160a081018252600590930290910180546001600160a01b0390811684526001820154169383019390935260028301549082015260038083015460608301526004830154919291608084019160ff90911690811115610858576108586123af565b6003811115610869576108696123af565b81525050905080600001516001600160a01b0316856001600160a01b0316036108b957600192506000816080015160038111156108a8576108a86123af565b036108b95760009550505050505090565b50806108c4816125ba565b9150506107ca565b508015156000036108e1576000935050505090565b6001935050505090565b600080808080805b600454811015610a5857600060048281548110610912576109126125a4565b60009182526020918290206040805160a081018252600590930290910180546001600160a01b0390811684526001820154169383019390935260028301549082015260038083015460608301526004830154919291608084019160ff90911690811115610981576109816123af565b6003811115610992576109926123af565b9052508051909150336001600160a01b0390911603610a4557600482815481106109be576109be6125a4565b6000918252602090912060059091020154600480546001600160a01b03909216975090839081106109f1576109f16125a4565b906000526020600020906005020160010160009054906101000a90046001600160a01b0316945060048281548110610a2b57610a2b6125a4565b906000526020600020906005020160030154935050610a58565b5080610a50816125ba565b9150506108f3565b5060005b600454811015610b5557600060048281548110610a7b57610a7b6125a4565b60009182526020918290206040805160a081018252600590930290910180546001600160a01b0390811684526001820154169383019390935260028301549082015260038083015460608301526004830154919291608084019160ff90911690811115610aea57610aea6123af565b6003811115610afb57610afb6123af565b90525080519091506001600160a01b03808716911603610b425760048281548110610b2857610b286125a4565b906000526020600020906005020160030154925050610b55565b5080610b4d816125ba565b915050610a5c565b508115801590610b6457508015155b610b6d57600080fd5b6000610b77611e91565b90508061271014610def576000600288604051602001610b9791906125d3565b60408051601f1981840301815290829052610bb1916125d3565b602060405180830381855afa158015610bce573d6000803e3d6000fd5b5050506040513d601f19601f82011682018060405250810190610bf191906125ef565b90506000610bfe89611f66565b6003811115610c0f57610c0f6123af565b90506000816003811115610c2557610c256123af565b03610c415750506009805461ff00191690555060009450610e00565b60005b600454811015610dbe57600060048281548110610c6357610c636125a4565b60009182526020918290206040805160a081018252600590930290910180546001600160a01b0390811684526001820154169383019390935260028301549082015260038083015460608301526004830154919291608084019160ff90911690811115610cd257610cd26123af565b6003811115610ce357610ce36123af565b9052508051909150336001600160a01b0390911603610dab5783816060015103610da5578260048381548110610d1b57610d1b6125a4565b60009182526020909120600460059092020101805460ff19166001836003811115610d4857610d486123af565b0217905550610d8b6040518060400160405280601c81526020017f776f726b696e6720696e2072657665616c2d7375636365737366756c00000000815250611e4e565b610da5836003811115610da057610da06123af565b611e06565b50610dbe565b5080610db6816125ba565b915050610c44565b506009805482919061ff001916610100836003811115610de057610de06123af565b02179055509650610e00915050565b506009805461ff0019169055600094505b50505050919050565b6000600154600014610e355742610258600154610e269190612608565b610e30919061258b565b905090565b5061025890565b6000805b600454811015610ee057336001600160a01b031660048281548110610e6757610e676125a4565b60009182526020909120600590910201546001600160a01b031603610ece5760006001600160a01b031660048281548110610ea457610ea46125a4565b60009182526020909120600160059092020101546001600160a01b031614610ece57600191505090565b80610ed8816125ba565b915050610e40565b506000905090565b60008080805b600454811015610fd357600060048281548110610f0d57610f0d6125a4565b60009182526020918290206040805160a081018252600590930290910180546001600160a01b0390811684526001820154169383019390935260028301549082015260038083015460608301526004830154919291608084019160ff90911690811115610f7c57610f7c6123af565b6003811115610f8d57610f8d6123af565b9052508051909150336001600160a01b0390911603610fc05780602001519250806040015184610fbd9190612608565b93505b5080610fcb816125ba565b915050610eee565b506001600160a01b038116156110c65760005b6004548110156110c457600060048281548110611005576110056125a4565b60009182526020918290206040805160a081018252600590930290910180546001600160a01b0390811684526001820154169383019390935260028301549082015260038083015460608301526004830154919291608084019160ff90911690811115611074576110746123af565b6003811115611085576110856123af565b90525080519091506001600160a01b038085169116036110b15760408101516110ae9085612608565b93505b50806110bc816125ba565b915050610fe6565b505b50919050565b600080808080805b6004548110156111cd576000600482815481106110f3576110f36125a4565b60009182526020918290206040805160a081018252600590930290910180546001600160a01b0390811684526001820154169383019390935260028301549082015260038083015460608301526004830154919291608084019160ff90911690811115611162576111626123af565b6003811115611173576111736123af565b9052508051909150336001600160a01b03909116036111ba57805160208201516080830151919750955093506111b4846003811115610da057610da06123af565b506111cd565b50806111c5816125ba565b9150506110d4565b5060005b6004548110156112a8576000600482815481106111f0576111f06125a4565b60009182526020918290206040805160a081018252600590930290910180546001600160a01b0390811684526001820154169383019390935260028301549082015260038083015460608301526004830154919291608084019160ff9091169081111561125f5761125f6123af565b6003811115611270576112706123af565b90525080519091506001600160a01b03808716911603611295576080015191506112a8565b50806112a0816125ba565b9150506111d1565b5060008260038111156112bd576112bd6123af565b141580156112dd575060008160038111156112da576112da6123af565b14155b6112e657600080fd5b6000808080808080805b6004548110156113d65760006004828154811061130f5761130f6125a4565b60009182526020918290206040805160a081018252600590930290910180546001600160a01b0390811684526001820154169383019390935260028301549082015260038083015460608301526004830154919291608084019160ff9091169081111561137e5761137e6123af565b600381111561138f5761138f6123af565b9052508051909150336001600160a01b03909116036113c357805160208201516080909201519950965094509250826113d6565b50806113ce816125ba565b9150506112f0565b5060005b6004548110156114b4576000600482815481106113f9576113f96125a4565b60009182526020918290206040805160a081018252600590930290910180546001600160a01b0390811684526001820154169383019390935260028301549082015260038083015460608301526004830154919291608084019160ff90911690811115611468576114686123af565b6003811115611479576114796123af565b90525080519091506001600160a01b038088169116036114a1576080015196509150816114b4565b50806114ac816125ba565b9150506113da565b508560038111156114c7576114c76123af565b8760038111156114d9576114d96123af565b036114e6575060036115d2565b60018760038111156114fa576114fa6123af565b14801561151857506003866003811115611516576115166123af565b145b8061155057506002876003811115611532576115326123af565b1480156115505750600186600381111561154e5761154e6123af565b145b806115885750600387600381111561156a5761156a6123af565b14801561158857506002866003811115611586576115866123af565b145b806115c1575060008760038111156115a2576115a26123af565b141580156115c1575060008660038111156115bf576115bf6123af565b145b156115ce575060016115d2565b5060025b84846115e18282878787611fe7565b6115e961218c565b6009805484919062ff000019166201000083600381111561160c5761160c6123af565b0217905550919c5050505050505050505050505090565b60008080805b60045481101561175d57600060048281548110611648576116486125a4565b60009182526020918290206040805160a081018252600590930290910180546001600160a01b0390811684526001820154169383019390935260028301549082015260038083015460608301526004830154919291608084019160ff909116908111156116b7576116b76123af565b60038111156116c8576116c86123af565b90525080519091506116d990612331565b6116e68160200151612331565b80516001600160a01b0316330361174a57602081015160608201519094506001935060000361174a5761173f6040518060400160405280600f81526020016e796f75206469646e7420706c61793160881b815250611e4e565b600094505050505090565b5080611755816125ba565b915050611629565b5080151560000361179c576107bd604051806040016040528060138152602001723cb7ba903234b2373a103932b3b4b9ba32b91960691b815250611e4e565b6000805b6004548110156118c6576000600482815481106117bf576117bf6125a4565b60009182526020918290206040805160a081018252600590930290910180546001600160a01b0390811684526001820154169383019390935260028301549082015260038083015460608301526004830154919291608084019160ff9091169081111561182e5761182e6123af565b600381111561183f5761183f6123af565b81525050905080600001516001600160a01b0316856001600160a01b0316036118b3576060810151600193506000036118b3576118a7604051806040016040528060148152602001736f70706f6e656e74206469646e7420706c61793360601b815250611e4e565b60009550505050505090565b50806118be816125ba565b9150506117a0565b508015156000036119195761190f6040518060400160405280601881526020017f6f70706f6e656e74206469646e74207265676973746572340000000000000000815250611e4e565b6000935050505090565b6108e160405180604001604052806008815260200167537563636573733560c01b815250611e4e565b606060085460010361196c5760405180606001604052806037815260200161264360379139905090565b6008546002036119945760405180606001604052806027815260200161261c60279139905090565b90565b6000806119a2611e91565b90508061271014611a605760006001600160a01b0316600482815481106119cb576119cb6125a4565b60009182526020909120600160059092020101546001600160a01b031614801590611a1c575060048181548110611a0457611a046125a4565b9060005260206000209060050201600301546000801b145b15611a60578260048281548110611a3557611a356125a4565b600091825260209091206003600590920201015550506009805460ff19166001908117909155919050565b50506009805460ff1916905550600090565b600954606090610100900460ff166003811115611a9157611a916123af565b600003611aba5750604080518082019091526007815266125b9d985b1a5960ca1b602082015290565b600954610100900460ff166003811115611ad657611ad66123af565b600103611b06575060408051808201909152600e81526d52657665616c65643a20526f636b60901b602082015290565b600954610100900460ff166003811115611b2257611b226123af565b600203611b53575060408051808201909152600f81526e2932bb32b0b632b21d102830b832b960891b602082015290565b5060408051808201909152601281527152657665616c65643a2053636973736f727360701b602082015290565b60095460609062010000900460ff166003811115611ba057611ba06123af565b600003611bc95750604080518082019091526007815266125b9d985b1a5960ca1b602082015290565b60095462010000900460ff166003811115611be657611be66123af565b600103611c14575060408051808201909152600c81526b283630bcb2b91018903bb7b760a11b602082015290565b60095462010000900460ff166003811115611c3157611c316123af565b600203611c5f575060408051808201909152600c81526b283630bcb2b91019103bb7b760a11b602082015290565b60095462010000900460ff166003811115611c7c57611c7c6123af565b600303611994575060408051808201909152600a81526923b0b6b290223930bbb760b11b602082015290565b6000805b600454811015611d7b57600060048281548110611ccb57611ccb6125a4565b60009182526020918290206040805160a081018252600590930290910180546001600160a01b0390811684526001820154169383019390935260028301549082015260038083015460608301526004830154919291608084019160ff90911690811115611d3a57611d3a6123af565b6003811115611d4b57611d4b6123af565b90525080519091506001600160a01b03163303611d685750919050565b5080611d73816125ba565b915050611cac565b50612710905090565b60095460609060ff161515600103611dce575060408051808201909152601c81527f5375636365737366756c6c792073746f72656420746865206d6f766500000000602082015290565b5060408051808201909152601d81527f4661696c656420746f2073746f72652074686520706c6179206d6f7665000000602082015290565b611e4b81604051602401611e1c91815260200190565b60408051601f198184030181529190526020810180516001600160e01b031663f5b1bba960e01b179052612375565b50565b611e4b81604051602401611e629190612520565b60408051601f198184030181529190526020810180516001600160e01b031663104c13eb60e21b179052612375565b6000805b600454811015611d7b57600060048281548110611eb457611eb46125a4565b60009182526020918290206040805160a081018252600590930290910180546001600160a01b0390811684526001820154169383019390935260028301549082015260038083015460608301526004830154919291608084019160ff90911690811115611f2357611f236123af565b6003811115611f3457611f346123af565b9052508051909150336001600160a01b0390911603611f535750919050565b5080611f5e816125ba565b915050611e95565b60008082600081518110611f7c57611f7c6125a4565b01602001516001600160f81b0319169050603160f81b819003611fa25750600192915050565b6001600160f81b03198116601960f91b03611fc05750600292915050565b6001600160f81b03198116603360f81b03611fde5750600392915050565b50600092915050565b6001816003811115611ffb57611ffb6123af565b0361208f57846001600160a01b03166108fc60048481548110612020576120206125a4565b90600052602060002090600502016002015460048681548110612045576120456125a4565b9060005260206000209060050201600201546120619190612608565b6040518115909202916000818181858888f19350505050158015612089573d6000803e3d6000fd5b50612185565b60028160038111156120a3576120a36123af565b036120c857836001600160a01b03166108fc60048481548110612020576120206125a4565b846001600160a01b03166108fc600485815481106120e8576120e86125a4565b9060005260206000209060050201600201549081150290604051600060405180830381858888f19350505050158015612125573d6000803e3d6000fd5b50836001600160a01b03166108fc60048481548110612146576121466125a4565b9060005260206000209060050201600201549081150290604051600060405180830381858888f19350505050158015612183573d6000803e3d6000fd5b505b5050505050565b6000806000805b60045481101561221d57600481815481106121b0576121b06125a4565b60009182526020909120600590910201546001600160a01b0316330361220b57600481815481106121e3576121e36125a4565b60009182526020909120600160059092020101549093506001600160a01b031690508261221d565b80612215816125ba565b915050612193565b5060005b60045481101561227c576004818154811061223e5761223e6125a4565b60009182526020909120600590910201546001600160a01b039081169083160361226a5780925061227c565b80612274816125ba565b915050612221565b5060048381548110612290576122906125a4565b60009182526020822060059091020180546001600160a01b0319908116825560018201805490911690556002810182905560038101919091556004908101805460ff191690558054839081106122e8576122e86125a4565b60009182526020822060059091020180546001600160a01b031990811682556001820180549091169055600281018290556003810191909155600401805460ff19169055505050565b6040516001600160a01b0382166024820152611e4b9060440160408051601f198184030181529190526020810180516001600160e01b031663161765e160e11b1790525b80516a636f6e736f6c652e6c6f67602083016000808483855afa5050505050565b6000602082840312156123a857600080fd5b5035919050565b634e487b7160e01b600052602160045260246000fd5b60048110611e4b57634e487b7160e01b600052602160045260246000fd5b6001600160a01b03868116825285166020820152604081018490526060810183905260a08101612412836123c5565b8260808301529695505050505050565b634e487b7160e01b600052604160045260246000fd5b60006020828403121561244a57600080fd5b813567ffffffffffffffff8082111561246257600080fd5b818401915084601f83011261247657600080fd5b81358181111561248857612488612422565b604051601f8201601f19908116603f011681019083821181831017156124b0576124b0612422565b816040528281528760208487010111156124c957600080fd5b826020860160208301376000928101602001929092525095945050505050565b602081016124f6836123c5565b91905290565b60005b838110156125175781810151838201526020016124ff565b50506000910152565b602081526000825180602084015261253f8160408501602087016124fc565b601f01601f19169190910160400192915050565b60008261257057634e487b7160e01b600052601260045260246000fd5b500690565b634e487b7160e01b600052601160045260246000fd5b8181038181111561259e5761259e612575565b92915050565b634e487b7160e01b600052603260045260246000fd5b6000600182016125cc576125cc612575565b5060010190565b600082516125e58184602087016124fc565b9190910192915050565b60006020828403121561260157600080fd5b5051919050565b8082018082111561259e5761259e61257556fe526567697374726174696f6e207375636365737366756c2e20506c6179207468652067616d652e526567697374726174696f6e205375636365737366756c2e205761697420666f7220746865206f70706f6e656e7420746f206a6f696e2ea264697066735822122063f5bba2c3a4a3d86aaa45ff63e94d7491c9add3c7ba4c0aeabe26af41283ee064736f6c63430008130033",
    "linkReferences": {}
  },
  "methodIdentifiers": {
    "BET_MIN()": "2626ab08",
    "REVEAL_TIMEOUT()": "3d6ae3a7",
    "bothPlayed()": "807c8504",
    "bothRevealed()": "43445ca8",
    "getContractBalance()": "6f9fb98a",
    "getFinalOutput()": "da46cc2d",
    "getOutcome()": "7e7e4b47",
    "getPlayOutput()": "ee198ce0",
    "getRegisterValue()": "9d245719",
    "getRevealOutput()": "d347c04c",
    "initialBet()": "1d73c64c",
    "listOfPlayers(uint256)": "3f061259",
    "opponentJoined()": "5afe0dd5",
    "play(bytes32)": "c7a1865b",
    "register()": "1aa3a008",
    "reveal(string)": "4c261247",
    "revealTimeLeft()": "51dcb1c3",
    "whoAmI()": "da91254c"
  },
  "id": 17
}