{
  "abi": [
    {
      "inputs": [],
      "name": "BET_MIN",
      "outputs": [
        {
          "internalType": "uint256",
          "name": "",
          "type": "uint256"
        }
      ],
      "stateMutability": "view",
      "type": "function"
    },
    {
      "inputs": [],
      "name": "REVEAL_TIMEOUT",
      "outputs": [
        {
          "internalType": "uint256",
          "name": "",
          "type": "uint256"
        }
      ],
      "stateMutability": "view",
      "type": "function"
    },
    {
      "inputs": [],
      "name": "bothPlayed",
      "outputs": [
        {
          "internalType": "uint256",
          "name": "",
          "type": "uint256"
        }
      ],
      "stateMutability": "view",
      "type": "function"
    },
    {
      "inputs": [],
      "name": "bothRevealed",
      "outputs": [
        {
          "internalType": "bool",
          "name": "",
          "type": "bool"
        }
      ],
      "stateMutability": "view",
      "type": "function"
    },
    {
      "inputs": [],
      "name": "getContractBalance",
      "outputs": [
        {
          "internalType": "uint256",
          "name": "",
          "type": "uint256"
        }
      ],
      "stateMutability": "view",
      "type": "function"
    },
    {
      "inputs": [],
      "name": "getFinalOutput",
      "outputs": [
        {
          "internalType": "uint256",
          "name": "",
          "type": "uint256"
        }
      ],
      "stateMutability": "view",
      "type": "function"
    },
    {
      "inputs": [],
      "name": "getOutcome",
      "outputs": [
        {
          "internalType": "enum RockPaperScissors.Outcomes",
          "name": "",
          "type": "uint8"
        }
      ],
      "stateMutability": "nonpayable",
      "type": "function"
    },
    {
      "inputs": [],
      "name": "getPlayOutput",
      "outputs": [
        {
          "internalType": "bool",
          "name": "",
          "type": "bool"
        }
      ],
      "stateMutability": "view",
      "type": "function"
    },
    {
      "inputs": [],
      "name": "getRegisterValue",
      "outputs": [
        {
          "internalType": "uint256",
          "name": "",
          "type": "uint256"
        }
      ],
      "stateMutability": "view",
      "type": "function"
    },
    {
      "inputs": [],
      "name": "getRevealOutput",
      "outputs": [
        {
          "internalType": "uint256",
          "name": "",
          "type": "uint256"
        }
      ],
      "stateMutability": "view",
      "type": "function"
    },
    {
      "inputs": [],
      "name": "initialBet",
      "outputs": [
        {
          "internalType": "uint256",
          "name": "",
          "type": "uint256"
        }
      ],
      "stateMutability": "view",
      "type": "function"
    },
    {
      "inputs": [
        {
          "internalType": "uint256",
          "name": "",
          "type": "uint256"
        }
      ],
      "name": "listOfPlayers",
      "outputs": [
        {
          "internalType": "address",
          "name": "MyAddr",
          "type": "address"
        },
        {
          "internalType": "address",
          "name": "OppAddr",
          "type": "address"
        },
        {
          "internalType": "uint256",
          "name": "bet",
          "type": "uint256"
        },
        {
          "internalType": "bytes32",
          "name": "encryptedMove",
          "type": "bytes32"
        },
        {
          "internalType": "enum RockPaperScissors.Moves",
          "name": "movePlayer",
          "type": "uint8"
        }
      ],
      "stateMutability": "view",
      "type": "function"
    },
    {
      "inputs": [
        {
          "internalType": "bytes32",
          "name": "encrMove",
          "type": "bytes32"
        }
      ],
      "name": "play",
      "outputs": [
        {
          "internalType": "bool",
          "name": "",
          "type": "bool"
        }
      ],
      "stateMutability": "nonpayable",
      "type": "function"
    },
    {
      "inputs": [],
      "name": "register",
      "outputs": [
        {
          "internalType": "uint256",
          "name": "",
          "type": "uint256"
        }
      ],
      "stateMutability": "payable",
      "type": "function"
    },
    {
      "inputs": [
        {
          "internalType": "string",
          "name": "clearMove",
          "type": "string"
        }
      ],
      "name": "reveal",
      "outputs": [
        {
          "internalType": "enum RockPaperScissors.Moves",
          "name": "",
          "type": "uint8"
        }
      ],
      "stateMutability": "nonpayable",
      "type": "function"
    },
    {
      "inputs": [],
      "name": "revealTimeLeft",
      "outputs": [
        {
          "internalType": "int256",
          "name": "",
          "type": "int256"
        }
      ],
      "stateMutability": "view",
      "type": "function"
    },
    {
      "inputs": [],
      "name": "whoAmI",
      "outputs": [
        {
          "internalType": "uint256",
          "name": "",
          "type": "uint256"
        }
      ],
      "stateMutability": "view",
      "type": "function"
    }
  ],
  "bytecode": {
    "object": "0x608060405234801561001057600080fd5b50612377806100206000396000f3fe6080604052600436106100fe5760003560e01c80636f9fb98a11610095578063c7a1865b11610064578063c7a1865b14610251578063d347c04c14610271578063da46cc2d14610286578063da91254c1461029b578063ee198ce0146102b057600080fd5b80636f9fb98a146101fd5780637e7e4b4714610212578063807c8504146102275780639d2457191461023c57600080fd5b80633f061259116100d15780633f0612591461016557806343445ca8146101965780634c261247146101bb57806351dcb1c3146101e857600080fd5b80631aa3a008146101035780631d73c64c1461011e5780632626ab08146101345780633d6ae3a71461014f575b600080fd5b61010b6102c8565b6040519081526020015b60405180910390f35b34801561012a57600080fd5b5061010b60005481565b34801561014057600080fd5b5061010b662386f26fc1000081565b34801561015b57600080fd5b5061010b61025881565b34801561017157600080fd5b5061018561018036600461208d565b610602565b6040516101159594939291906120da565b3480156101a257600080fd5b506101ab610652565b6040519015158152602001610115565b3480156101c757600080fd5b506101db6101d636600461212f565b6108c1565b60405161011591906121e0565b3480156101f457600080fd5b5061010b610ddf565b34801561020957600080fd5b5061010b610e12565b34801561021e57600080fd5b506101db610ff6565b34801561023357600080fd5b5061010b6115e8565b34801561024857600080fd5b5060085461010b565b34801561025d57600080fd5b506101ab61026c36600461208d565b611907565b34801561027d57600080fd5b5061010b6119e2565b34801561029257600080fd5b5061010b611a01565b3480156102a757600080fd5b5061010b611a21565b3480156102bc57600080fd5b5060095460ff166101ab565b6004546000906102da906002906121f3565b6000036102fa57662386f26fc100003410156102f557600080fd5b61034d565b600454662386f26fc1000034108015906103425750600461031c60018361222b565b8154811061032c5761032c612244565b9060005260206000209060050201600201543410155b61034b57600080fd5b505b60045461035b6002826121f3565b156103a257600461036d60018361222b565b8154811061037d5761037d612244565b60009182526020909120600590910201546001600160a01b031633036103a257600080fd5b6040805160a081018252338152600060208201818152349383019384526060830182815260808401838152600480546001808201835591909552855160059095027f8a35acfbc15ff81a39ae7d344fd709f28e8600b4aa8c65c6b64bfe7fe36bd19b810180546001600160a01b03199081166001600160a01b0398891617825595517f8a35acfbc15ff81a39ae7d344fd709f28e8600b4aa8c65c6b64bfe7fe36bd19c8301805490971697169690961790945595517f8a35acfbc15ff81a39ae7d344fd709f28e8600b4aa8c65c6b64bfe7fe36bd19d84015590517f8a35acfbc15ff81a39ae7d344fd709f28e8600b4aa8c65c6b64bfe7fe36bd19e830155517f8a35acfbc15ff81a39ae7d344fd709f28e8600b4aa8c65c6b64bfe7fe36bd19f9091018054939492939192909160ff1916908360038111156104e7576104e76120a6565b0217905550506004546104fa9150611afd565b600454610509906002906121f3565b6000036105f6576004805490339061052260028461222b565b8154811061053257610532612244565b6000918252602090912060059091020160010180546001600160a01b0319166001600160a01b0392909216919091179055600461057060028361222b565b8154811061058057610580612244565b60009182526020909120600590910201546001600160a01b031660046105a760018461222b565b815481106105b7576105b7612244565b6000918252602090912060059091020160010180546001600160a01b0319166001600160a01b0392909216919091179055505060026008819055919050565b50506001600881905590565b6004818154811061061257600080fd5b6000918252602090912060059091020180546001820154600283015460038401546004909401546001600160a01b03938416955091909216929060ff1685565b60008080805b6004548110156107545760006004828154811061067757610677612244565b60009182526020918290206040805160a081018252600590930290910180546001600160a01b0390811684526001820154169383019390935260028301549082015260038083015460608301526004830154919291608084019160ff909116908111156106e6576106e66120a6565b60038111156106f7576106f76120a6565b90525080519091506001600160a01b03163303610741576020810151935060019250600081608001516003811115610731576107316120a6565b0361074157600094505050505090565b508061074c8161225a565b915050610658565b5080151560000361079c57610793604051806040016040528060138152602001723cb7ba903234b2373a103932b3b4b9ba32b91960691b815250611b45565b60009250505090565b6000805b6004548110156108a2576000600482815481106107bf576107bf612244565b60009182526020918290206040805160a081018252600590930290910180546001600160a01b0390811684526001820154169383019390935260028301549082015260038083015460608301526004830154919291608084019160ff9091169081111561082e5761082e6120a6565b600381111561083f5761083f6120a6565b81525050905080600001516001600160a01b0316856001600160a01b03160361088f576001925060008160800151600381111561087e5761087e6120a6565b0361088f5760009550505050505090565b508061089a8161225a565b9150506107a0565b508015156000036108b7576000935050505090565b6001935050505090565b600080808080805b600454811015610a2e576000600482815481106108e8576108e8612244565b60009182526020918290206040805160a081018252600590930290910180546001600160a01b0390811684526001820154169383019390935260028301549082015260038083015460608301526004830154919291608084019160ff90911690811115610957576109576120a6565b6003811115610968576109686120a6565b9052508051909150336001600160a01b0390911603610a1b576004828154811061099457610994612244565b6000918252602090912060059091020154600480546001600160a01b03909216975090839081106109c7576109c7612244565b906000526020600020906005020160010160009054906101000a90046001600160a01b0316945060048281548110610a0157610a01612244565b906000526020600020906005020160030154935050610a2e565b5080610a268161225a565b9150506108c9565b5060005b600454811015610b2b57600060048281548110610a5157610a51612244565b60009182526020918290206040805160a081018252600590930290910180546001600160a01b0390811684526001820154169383019390935260028301549082015260038083015460608301526004830154919291608084019160ff90911690811115610ac057610ac06120a6565b6003811115610ad157610ad16120a6565b90525080519091506001600160a01b03808716911603610b185760048281548110610afe57610afe612244565b906000526020600020906005020160030154925050610b2b565b5080610b238161225a565b915050610a32565b508115801590610b3a57508015155b610b4357600080fd5b6000610b4d611b88565b90508061271014610dc5576000600288604051602001610b6d9190612297565b60408051601f1981840301815290829052610b8791612297565b602060405180830381855afa158015610ba4573d6000803e3d6000fd5b5050506040513d601f19601f82011682018060405250810190610bc791906122b3565b90506000610bd489611c5d565b6003811115610be557610be56120a6565b90506000816003811115610bfb57610bfb6120a6565b03610c175750506009805461ff00191690555060009450610dd6565b60005b600454811015610d9457600060048281548110610c3957610c39612244565b60009182526020918290206040805160a081018252600590930290910180546001600160a01b0390811684526001820154169383019390935260028301549082015260038083015460608301526004830154919291608084019160ff90911690811115610ca857610ca86120a6565b6003811115610cb957610cb96120a6565b9052508051909150336001600160a01b0390911603610d815783816060015103610d7b578260048381548110610cf157610cf1612244565b60009182526020909120600460059092020101805460ff19166001836003811115610d1e57610d1e6120a6565b0217905550610d616040518060400160405280601c81526020017f776f726b696e6720696e2072657665616c2d7375636365737366756c00000000815250611b45565b610d7b836003811115610d7657610d766120a6565b611afd565b50610d94565b5080610d8c8161225a565b915050610c1a565b506009805482919061ff001916610100836003811115610db657610db66120a6565b02179055509650610dd6915050565b506009805461ff0019169055600094505b50505050919050565b6000600154600014610e0b5742610258600154610dfc91906122cc565b610e06919061222b565b905090565b5061025890565b60008080805b600454811015610efd57600060048281548110610e3757610e37612244565b60009182526020918290206040805160a081018252600590930290910180546001600160a01b0390811684526001820154169383019390935260028301549082015260038083015460608301526004830154919291608084019160ff90911690811115610ea657610ea66120a6565b6003811115610eb757610eb76120a6565b9052508051909150336001600160a01b0390911603610eea5780602001519250806040015184610ee791906122cc565b93505b5080610ef58161225a565b915050610e18565b506001600160a01b03811615610ff05760005b600454811015610fee57600060048281548110610f2f57610f2f612244565b60009182526020918290206040805160a081018252600590930290910180546001600160a01b0390811684526001820154169383019390935260028301549082015260038083015460608301526004830154919291608084019160ff90911690811115610f9e57610f9e6120a6565b6003811115610faf57610faf6120a6565b90525080519091506001600160a01b03808516911603610fdb576040810151610fd890856122cc565b93505b5080610fe68161225a565b915050610f10565b505b50919050565b600080808080805b6004548110156110f75760006004828154811061101d5761101d612244565b60009182526020918290206040805160a081018252600590930290910180546001600160a01b0390811684526001820154169383019390935260028301549082015260038083015460608301526004830154919291608084019160ff9091169081111561108c5761108c6120a6565b600381111561109d5761109d6120a6565b9052508051909150336001600160a01b03909116036110e457805160208201516080830151919750955093506110de846003811115610d7657610d766120a6565b506110f7565b50806110ef8161225a565b915050610ffe565b5060005b6004548110156111d25760006004828154811061111a5761111a612244565b60009182526020918290206040805160a081018252600590930290910180546001600160a01b0390811684526001820154169383019390935260028301549082015260038083015460608301526004830154919291608084019160ff90911690811115611189576111896120a6565b600381111561119a5761119a6120a6565b90525080519091506001600160a01b038087169116036111bf576080015191506111d2565b50806111ca8161225a565b9150506110fb565b5060008260038111156111e7576111e76120a6565b1415801561120757506000816003811115611204576112046120a6565b14155b61121057600080fd5b6112316040518060600160405280602f8152602001612313602f9139611b45565b6000808080808080805b6004548110156113215760006004828154811061125a5761125a612244565b60009182526020918290206040805160a081018252600590930290910180546001600160a01b0390811684526001820154169383019390935260028301549082015260038083015460608301526004830154919291608084019160ff909116908111156112c9576112c96120a6565b60038111156112da576112da6120a6565b9052508051909150336001600160a01b039091160361130e5780516020820151608090920151995096509450925082611321565b50806113198161225a565b91505061123b565b5060005b6004548110156113ff5760006004828154811061134457611344612244565b60009182526020918290206040805160a081018252600590930290910180546001600160a01b0390811684526001820154169383019390935260028301549082015260038083015460608301526004830154919291608084019160ff909116908111156113b3576113b36120a6565b60038111156113c4576113c46120a6565b90525080519091506001600160a01b038088169116036113ec576080015196509150816113ff565b50806113f78161225a565b915050611325565b50611428604051806040016040528060078152602001665031206d6f766560c81b815250611b45565b61143d876003811115610d7657610d766120a6565b611465604051806040016040528060078152602001665032206d6f766560c81b815250611b45565b61147a866003811115610d7657610d766120a6565b85600381111561148c5761148c6120a6565b87600381111561149e5761149e6120a6565b036114ab57506003611597565b60018760038111156114bf576114bf6120a6565b1480156114dd575060038660038111156114db576114db6120a6565b145b80611515575060028760038111156114f7576114f76120a6565b14801561151557506001866003811115611513576115136120a6565b145b8061154d5750600387600381111561152f5761152f6120a6565b14801561154d5750600286600381111561154b5761154b6120a6565b145b8061158657506000876003811115611567576115676120a6565b1415801561158657506000866003811115611584576115846120a6565b145b1561159357506001611597565b5060025b84846115a68282878787611cde565b6115ae611e83565b6009805484919062ff00001916620100008360038111156115d1576115d16120a6565b0217905550919c5050505050505050505050505090565b60008080805b6004548110156117225760006004828154811061160d5761160d612244565b60009182526020918290206040805160a081018252600590930290910180546001600160a01b0390811684526001820154169383019390935260028301549082015260038083015460608301526004830154919291608084019160ff9091169081111561167c5761167c6120a6565b600381111561168d5761168d6120a6565b905250805190915061169e90612028565b6116ab8160200151612028565b80516001600160a01b0316330361170f57602081015160608201519094506001935060000361170f576117046040518060400160405280600f81526020016e796f75206469646e7420706c61793160881b815250611b45565b600094505050505090565b508061171a8161225a565b9150506115ee565b5080151560000361176157610793604051806040016040528060138152602001723cb7ba903234b2373a103932b3b4b9ba32b91960691b815250611b45565b6000805b60045481101561188b5760006004828154811061178457611784612244565b60009182526020918290206040805160a081018252600590930290910180546001600160a01b0390811684526001820154169383019390935260028301549082015260038083015460608301526004830154919291608084019160ff909116908111156117f3576117f36120a6565b6003811115611804576118046120a6565b81525050905080600001516001600160a01b0316856001600160a01b031603611878576060810151600193506000036118785761186c604051806040016040528060148152602001736f70706f6e656e74206469646e7420706c61793360601b815250611b45565b60009550505050505090565b50806118838161225a565b915050611765565b508015156000036118de576118d46040518060400160405280601881526020017f6f70706f6e656e74206469646e74207265676973746572340000000000000000815250611b45565b6000935050505090565b6108b760405180604001604052806008815260200167537563636573733560c01b815250611b45565b600080611912611b88565b905080612710146119d05760006001600160a01b03166004828154811061193b5761193b612244565b60009182526020909120600160059092020101546001600160a01b03161480159061198c57506004818154811061197457611974612244565b9060005260206000209060050201600301546000801b145b156119d05782600482815481106119a5576119a5612244565b600091825260209091206003600590920201015550506009805460ff19166001908117909155919050565b50506009805460ff1916905550600090565b600954600090610100900460ff166003811115610e0657610e066120a6565b60095460009062010000900460ff166003811115610e0657610e066120a6565b6000805b600454811015611af457600060048281548110611a4457611a44612244565b60009182526020918290206040805160a081018252600590930290910180546001600160a01b0390811684526001820154169383019390935260028301549082015260038083015460608301526004830154919291608084019160ff90911690811115611ab357611ab36120a6565b6003811115611ac457611ac46120a6565b90525080519091506001600160a01b03163303611ae15750919050565b5080611aec8161225a565b915050611a25565b50612710905090565b611b4281604051602401611b1391815260200190565b60408051601f198184030181529190526020810180516001600160e01b031663f5b1bba960e01b17905261206c565b50565b611b4281604051602401611b5991906122df565b60408051601f198184030181529190526020810180516001600160e01b031663104c13eb60e21b17905261206c565b6000805b600454811015611af457600060048281548110611bab57611bab612244565b60009182526020918290206040805160a081018252600590930290910180546001600160a01b0390811684526001820154169383019390935260028301549082015260038083015460608301526004830154919291608084019160ff90911690811115611c1a57611c1a6120a6565b6003811115611c2b57611c2b6120a6565b9052508051909150336001600160a01b0390911603611c4a5750919050565b5080611c558161225a565b915050611b8c565b60008082600081518110611c7357611c73612244565b01602001516001600160f81b0319169050603160f81b819003611c995750600192915050565b6001600160f81b03198116601960f91b03611cb75750600292915050565b6001600160f81b03198116603360f81b03611cd55750600392915050565b50600092915050565b6001816003811115611cf257611cf26120a6565b03611d8657846001600160a01b03166108fc60048481548110611d1757611d17612244565b90600052602060002090600502016002015460048681548110611d3c57611d3c612244565b906000526020600020906005020160020154611d5891906122cc565b6040518115909202916000818181858888f19350505050158015611d80573d6000803e3d6000fd5b50611e7c565b6002816003811115611d9a57611d9a6120a6565b03611dbf57836001600160a01b03166108fc60048481548110611d1757611d17612244565b846001600160a01b03166108fc60048581548110611ddf57611ddf612244565b9060005260206000209060050201600201549081150290604051600060405180830381858888f19350505050158015611e1c573d6000803e3d6000fd5b50836001600160a01b03166108fc60048481548110611e3d57611e3d612244565b9060005260206000209060050201600201549081150290604051600060405180830381858888f19350505050158015611e7a573d6000803e3d6000fd5b505b5050505050565b6000806000805b600454811015611f145760048181548110611ea757611ea7612244565b60009182526020909120600590910201546001600160a01b03163303611f025760048181548110611eda57611eda612244565b60009182526020909120600160059092020101549093506001600160a01b0316905082611f14565b80611f0c8161225a565b915050611e8a565b5060005b600454811015611f735760048181548110611f3557611f35612244565b60009182526020909120600590910201546001600160a01b0390811690831603611f6157809250611f73565b80611f6b8161225a565b915050611f18565b5060048381548110611f8757611f87612244565b60009182526020822060059091020180546001600160a01b0319908116825560018201805490911690556002810182905560038101919091556004908101805460ff19169055805483908110611fdf57611fdf612244565b60009182526020822060059091020180546001600160a01b031990811682556001820180549091169055600281018290556003810191909155600401805460ff19169055505050565b6040516001600160a01b0382166024820152611b429060440160408051601f198184030181529190526020810180516001600160e01b031663161765e160e11b1790525b80516a636f6e736f6c652e6c6f67602083016000808483855afa5050505050565b60006020828403121561209f57600080fd5b5035919050565b634e487b7160e01b600052602160045260246000fd5b60048110611b4257634e487b7160e01b600052602160045260246000fd5b6001600160a01b03868116825285166020820152604081018490526060810183905260a08101612109836120bc565b8260808301529695505050505050565b634e487b7160e01b600052604160045260246000fd5b60006020828403121561214157600080fd5b813567ffffffffffffffff8082111561215957600080fd5b818401915084601f83011261216d57600080fd5b81358181111561217f5761217f612119565b604051601f8201601f19908116603f011681019083821181831017156121a7576121a7612119565b816040528281528760208487010111156121c057600080fd5b826020860160208301376000928101602001929092525095945050505050565b602081016121ed836120bc565b91905290565b60008261221057634e487b7160e01b600052601260045260246000fd5b500690565b634e487b7160e01b600052601160045260246000fd5b8181038181111561223e5761223e612215565b92915050565b634e487b7160e01b600052603260045260246000fd5b60006001820161226c5761226c612215565b5060010190565b60005b8381101561228e578181015183820152602001612276565b50506000910152565b600082516122a9818460208701612273565b9190910192915050565b6000602082840312156122c557600080fd5b5051919050565b8082018082111561223e5761223e612215565b60208152600082518060208401526122fe816040850160208701612273565b601f01601f1916919091016040019291505056fe52657665616c5068617365456e646564206d6f646966696572206578656375746564207375636365737366756c6c79a26469706673582212206cbcc7c045771a7a85eeb0e9de1d2ca13f066e4b0e20dbc327b9a253aee5719b64736f6c63430008130033",
    "linkReferences": {}
  },
  "methodIdentifiers": {
    "BET_MIN()": "2626ab08",
    "REVEAL_TIMEOUT()": "3d6ae3a7",
    "bothPlayed()": "807c8504",
    "bothRevealed()": "43445ca8",
    "getContractBalance()": "6f9fb98a",
    "getFinalOutput()": "da46cc2d",
    "getOutcome()": "7e7e4b47",
    "getPlayOutput()": "ee198ce0",
    "getRegisterValue()": "9d245719",
    "getRevealOutput()": "d347c04c",
    "initialBet()": "1d73c64c",
    "listOfPlayers(uint256)": "3f061259",
    "play(bytes32)": "c7a1865b",
    "register()": "1aa3a008",
    "reveal(string)": "4c261247",
    "revealTimeLeft()": "51dcb1c3",
    "whoAmI()": "da91254c"
  },
  "id": 17
}