{
  "abi": [
    {
      "inputs": [],
      "name": "BET_MIN",
      "outputs": [
        {
          "internalType": "uint256",
          "name": "",
          "type": "uint256"
        }
      ],
      "stateMutability": "view",
      "type": "function"
    },
    {
      "inputs": [],
      "name": "REVEAL_TIMEOUT",
      "outputs": [
        {
          "internalType": "uint256",
          "name": "",
          "type": "uint256"
        }
      ],
      "stateMutability": "view",
      "type": "function"
    },
    {
      "inputs": [],
      "name": "bothPlayed",
      "outputs": [
        {
          "internalType": "bool",
          "name": "",
          "type": "bool"
        }
      ],
      "stateMutability": "view",
      "type": "function"
    },
    {
      "inputs": [],
      "name": "bothRevealed",
      "outputs": [
        {
          "internalType": "bool",
          "name": "",
          "type": "bool"
        }
      ],
      "stateMutability": "view",
      "type": "function"
    },
    {
      "inputs": [],
      "name": "checkTimeout_register",
      "outputs": [
        {
          "internalType": "string",
          "name": "",
          "type": "string"
        }
      ],
      "stateMutability": "nonpayable",
      "type": "function"
    },
    {
      "inputs": [],
      "name": "getContractBalance",
      "outputs": [
        {
          "internalType": "uint256",
          "name": "",
          "type": "uint256"
        }
      ],
      "stateMutability": "view",
      "type": "function"
    },
    {
      "inputs": [],
      "name": "getFinalOutput",
      "outputs": [
        {
          "internalType": "string",
          "name": "",
          "type": "string"
        }
      ],
      "stateMutability": "view",
      "type": "function"
    },
    {
      "inputs": [],
      "name": "getOutcome",
      "outputs": [
        {
          "internalType": "enum RockPaperScissors.Outcomes",
          "name": "",
          "type": "uint8"
        }
      ],
      "stateMutability": "nonpayable",
      "type": "function"
    },
    {
      "inputs": [],
      "name": "getPlayOutput",
      "outputs": [
        {
          "internalType": "string",
          "name": "",
          "type": "string"
        }
      ],
      "stateMutability": "view",
      "type": "function"
    },
    {
      "inputs": [],
      "name": "getRegisterValue",
      "outputs": [
        {
          "internalType": "string",
          "name": "",
          "type": "string"
        }
      ],
      "stateMutability": "view",
      "type": "function"
    },
    {
      "inputs": [],
      "name": "getRevealOutput",
      "outputs": [
        {
          "internalType": "string",
          "name": "",
          "type": "string"
        }
      ],
      "stateMutability": "view",
      "type": "function"
    },
    {
      "inputs": [],
      "name": "initialBet",
      "outputs": [
        {
          "internalType": "uint256",
          "name": "",
          "type": "uint256"
        }
      ],
      "stateMutability": "view",
      "type": "function"
    },
    {
      "inputs": [
        {
          "internalType": "uint256",
          "name": "",
          "type": "uint256"
        }
      ],
      "name": "listOfPlayers",
      "outputs": [
        {
          "internalType": "address",
          "name": "MyAddr",
          "type": "address"
        },
        {
          "internalType": "address",
          "name": "OppAddr",
          "type": "address"
        },
        {
          "internalType": "uint256",
          "name": "bet",
          "type": "uint256"
        },
        {
          "internalType": "bytes32",
          "name": "encryptedMove",
          "type": "bytes32"
        },
        {
          "internalType": "enum RockPaperScissors.Moves",
          "name": "movePlayer",
          "type": "uint8"
        },
        {
          "internalType": "uint256",
          "name": "timeout_register",
          "type": "uint256"
        },
        {
          "internalType": "uint256",
          "name": "timeout_play",
          "type": "uint256"
        },
        {
          "internalType": "uint256",
          "name": "timeout_reveal",
          "type": "uint256"
        }
      ],
      "stateMutability": "view",
      "type": "function"
    },
    {
      "inputs": [],
      "name": "opponentJoined",
      "outputs": [
        {
          "internalType": "bool",
          "name": "",
          "type": "bool"
        }
      ],
      "stateMutability": "view",
      "type": "function"
    },
    {
      "inputs": [
        {
          "internalType": "bytes32",
          "name": "encrMove",
          "type": "bytes32"
        }
      ],
      "name": "play",
      "outputs": [
        {
          "internalType": "bool",
          "name": "",
          "type": "bool"
        }
      ],
      "stateMutability": "nonpayable",
      "type": "function"
    },
    {
      "inputs": [],
      "name": "register",
      "outputs": [
        {
          "internalType": "uint256",
          "name": "",
          "type": "uint256"
        }
      ],
      "stateMutability": "payable",
      "type": "function"
    },
    {
      "inputs": [
        {
          "internalType": "string",
          "name": "clearMove",
          "type": "string"
        }
      ],
      "name": "reveal",
      "outputs": [
        {
          "internalType": "enum RockPaperScissors.Moves",
          "name": "",
          "type": "uint8"
        }
      ],
      "stateMutability": "nonpayable",
      "type": "function"
    },
    {
      "inputs": [],
      "name": "revealTimeLeft",
      "outputs": [
        {
          "internalType": "int256",
          "name": "",
          "type": "int256"
        }
      ],
      "stateMutability": "view",
      "type": "function"
    },
    {
      "inputs": [],
      "name": "timeout",
      "outputs": [
        {
          "internalType": "uint256",
          "name": "",
          "type": "uint256"
        }
      ],
      "stateMutability": "view",
      "type": "function"
    },
    {
      "inputs": [],
      "name": "whoAmI",
      "outputs": [
        {
          "internalType": "uint256",
          "name": "",
          "type": "uint256"
        }
      ],
      "stateMutability": "view",
      "type": "function"
    }
  ],
  "bytecode": {
    "object": "0x608060405261025860025534801561001657600080fd5b50613203806100266000396000f3fe60806040526004361061011f5760003560e01c80636f9fb98a116100a0578063c7a1865b11610064578063c7a1865b146102c2578063d347c04c146102e2578063da46cc2d146102f7578063da91254c1461030c578063ee198ce01461032157600080fd5b80636f9fb98a1461025857806370dea79a1461026d5780637e7e4b4714610283578063807c8504146102985780639d245719146102ad57600080fd5b80633f061259116100e75780633f061259146101a857806343445ca8146101dc5780634c2612471461020157806351dcb1c31461022e5780635afe0dd51461024357600080fd5b80631aa3a008146101245780631d73c64c1461013f5780632626ab08146101555780632fc75113146101705780633d6ae3a714610192575b600080fd5b61012c610336565b6040519081526020015b60405180910390f35b34801561014b57600080fd5b5061012c60005481565b34801561016157600080fd5b5061012c662386f26fc1000081565b34801561017c57600080fd5b50610185610925565b6040516101369190612e8a565b34801561019e57600080fd5b5061012c61025881565b3480156101b457600080fd5b506101c86101c3366004612ea4565b610db3565b604051610136989796959493929190612ef1565b3480156101e857600080fd5b506101f1610e19565b6040519015158152602001610136565b34801561020d57600080fd5b5061022161021c366004612f5c565b6110c7565b604051610136919061300d565b34801561023a57600080fd5b5061012c61165f565b34801561024f57600080fd5b506101f1611692565b34801561026457600080fd5b5061012c61173e565b34801561027957600080fd5b5061012c60025481565b34801561028f57600080fd5b50610221611973565b3480156102a457600080fd5b506101f1611f6c565b3480156102b957600080fd5b506101856122cb565b3480156102ce57600080fd5b506101f16102dd366004612ea4565b612320565b3480156102ee57600080fd5b506101856123fb565b34801561030357600080fd5b50610185612509565b34801561031857600080fd5b5061012c612631565b34801561032d57600080fd5b5061018561272d565b60055460009061034890600290613020565b60000361036857662386f26fc1000034101561036357600080fd5b6103bb565b600554662386f26fc1000034108015906103b05750600561038a600183613058565b8154811061039a5761039a613071565b9060005260206000209060080201600201543410155b6103b957600080fd5b505b6005546103c9600282613020565b156104105760056103db600183613058565b815481106103eb576103eb613071565b60009182526020909120600890910201546001600160a01b0316330361041057600080fd5b61044060405180604001604052806007815260200166125b9a5d1a585b60ca1b81525061043b61173e565b6127af565b604080516101008101825233815260006020820181815234938301938452606083018281526080840183815260a0850184905260c0850184905260e08501849052600580546001808201835591909552855160089095027f036b6384b5eca791c62761152d0c79bb0604c104a5fb6f4eb0703f3154bb3db0810180546001600160a01b039788166001600160a01b031991821617825595517f036b6384b5eca791c62761152d0c79bb0604c104a5fb6f4eb0703f3154bb3db1830180549190981696169590951790955595517f036b6384b5eca791c62761152d0c79bb0604c104a5fb6f4eb0703f3154bb3db285015590517f036b6384b5eca791c62761152d0c79bb0604c104a5fb6f4eb0703f3154bb3db3840155517f036b6384b5eca791c62761152d0c79bb0604c104a5fb6f4eb0703f3154bb3db4909201805493949193909160ff199091169083600381111561059c5761059c612ebd565b021790555060a0820151816005015560c0820151816006015560e0820151816007015550506105cf6005805490506127f8565b6005546105de90600290613020565b6000036108e257600580549033906105f7600284613058565b8154811061060757610607613071565b6000918252602090912060089091020160010180546001600160a01b0319166001600160a01b03929092169190911790556005610645600283613058565b8154811061065557610655613071565b60009182526020909120600890910201546001600160a01b0316600561067c600184613058565b8154811061068c5761068c613071565b60009182526020909120600890910201600190810180546001600160a01b0319166001600160a01b0393909316929092179091556005805442926106cf91613058565b815481106106df576106df613071565b9060005260206000209060080201600501819055506002546005600260058054905061070b9190613058565b8154811061071b5761071b613071565b906000526020600020906008020160050154600560016005805490506107419190613058565b8154811061075157610751613071565b90600052602060002090600802016005015461076d9190613058565b11156108d45760058054600091829161078890600190613058565b8154811061079857610798613071565b6000918252602090912060089091020154600580546001600160a01b039092169350906107c790600290613058565b815481106107d7576107d7613071565b6000918252602090912060089091020154600580546001600160a01b039283169350918416916108fc919061080e90600190613058565b8154811061081e5761081e613071565b9060005260206000209060080201600201549081150290604051600060405180830381858888f1935050505015801561085b573d6000803e3d6000fd5b50600580546001600160a01b038316916108fc9161087b90600290613058565b8154811061088b5761088b613071565b9060005260206000209060080201600201549081150290604051600060405180830381858888f193505050501580156108c8573d6000803e3d6000fd5b506108d1612840565b50505b506002600981905591505090565b600580544291906108f590600190613058565b8154811061090557610905613071565b600091825260209091206008909102016005015550506001600981905590565b6060600080600080806000805b6005548110156109ef57336001600160a01b03166005828154811061095957610959613071565b60009182526020909120600890910201546001600160a01b0316036109dd576005818154811061098b5761098b613071565b906000526020600020906008020160050154965080935060019150600581815481106109b9576109b9613071565b60009182526020909120600160089092020101546001600160a01b031694506109ef565b806109e781613087565b915050610932565b50801515600003610a305760405180604001604052806012815260200171526567697374657220796f75722067616d6560701b815250965050505050505090565b6001600160a01b03841615610c6b5760005b600554811015610ac957846001600160a01b031660058281548110610a6957610a69613071565b60009182526020909120600890910201546001600160a01b031603610ab75780925060058181548110610a9e57610a9e613071565b9060005260206000209060080201600501549550610ac9565b80610ac181613087565b915050610a42565b506014610ad68787613058565b1115610c365760008060058581548110610af257610af2613071565b6000918252602090912060089091020154600580546001600160a01b0390921693509085908110610b2557610b25613071565b906000526020600020906008020160000160009054906101000a90046001600160a01b03169050816001600160a01b03166108fc60058781548110610b6c57610b6c613071565b9060005260206000209060080201600201549081150290604051600060405180830381858888f19350505050158015610ba9573d6000803e3d6000fd5b50806001600160a01b03166108fc60058681548110610bca57610bca613071565b9060005260206000209060080201600201549081150290604051600060405180830381858888f19350505050158015610c07573d6000803e3d6000fd5b50610c10612840565b6040518060600160405280602f815260200161310b602f91399850505050505050505090565b60405180604001604052806011815260200170151a195c9949dcc81d1a5b59481b19599d607a1b815250965050505050505090565b600060058481548110610c8057610c80613071565b6000918252602090912060089091020154600580546001600160a01b039092169250610cd59186908110610cb657610cb6613071565b60009182526020909120600890910201546001600160a01b0316612a34565b610cff604051806040016040528060068152602001654265666f726560d01b81525061043b61173e565b610d0881612a34565b610d368160058681548110610d1f57610d1f613071565b906000526020600020906008020160020154612a7c565b610d5f6040518060400160405280600581526020016420b33a32b960d91b81525061043b61173e565b610d8e6040518060400160405280600e81526020016d52657475726e6564206d6f6e657960901b815250612ab2565b6040518060600160405280603681526020016131616036913997505050505050505090565b60058181548110610dc357600080fd5b6000918252602090912060089091020180546001820154600283015460038401546004850154600586015460068701546007909701546001600160a01b03968716985094909516959294919360ff909116929088565b60008080805b600554811015610f3b57600060058281548110610e3e57610e3e613071565b60009182526020918290206040805161010081018252600890930290910180546001600160a01b0390811684526001820154169383019390935260028301549082015260038083015460608301526004830154919291608084019160ff90911690811115610eae57610eae612ebd565b6003811115610ebf57610ebf612ebd565b8152600582015460208201526006820154604082015260079091015460609091015280519091506001600160a01b03163303610f28576020810151935060019250600081608001516003811115610f1857610f18612ebd565b03610f2857600094505050505090565b5080610f3381613087565b915050610e1f565b50801515600003610f8357610f7a604051806040016040528060138152602001723cb7ba903234b2373a103932b3b4b9ba32b91960691b815250612ab2565b60009250505090565b6000805b6005548110156110a857600060058281548110610fa657610fa6613071565b60009182526020918290206040805161010081018252600890930290910180546001600160a01b0390811684526001820154169383019390935260028301549082015260038083015460608301526004830154919291608084019160ff9091169081111561101657611016612ebd565b600381111561102757611027612ebd565b81526020016005820154815260200160068201548152602001600782015481525050905080600001516001600160a01b0316856001600160a01b031603611095576001925060008160800151600381111561108457611084612ebd565b036110955760009550505050505090565b50806110a081613087565b915050610f87565b508015156000036110bd576000935050505090565b6001935050505090565b600080808080805b60055481101561125d576000600582815481106110ee576110ee613071565b60009182526020918290206040805161010081018252600890930290910180546001600160a01b0390811684526001820154169383019390935260028301549082015260038083015460608301526004830154919291608084019160ff9091169081111561115e5761115e612ebd565b600381111561116f5761116f612ebd565b815260200160058201548152602001600682015481526020016007820154815250509050336001600160a01b031681600001516001600160a01b03160361124a57600582815481106111c3576111c3613071565b6000918252602090912060089091020154600580546001600160a01b03909216975090839081106111f6576111f6613071565b906000526020600020906008020160010160009054906101000a90046001600160a01b031694506005828154811061123057611230613071565b90600052602060002090600802016003015493505061125d565b508061125581613087565b9150506110cf565b5060005b6005548110156113825760006005828154811061128057611280613071565b60009182526020918290206040805161010081018252600890930290910180546001600160a01b0390811684526001820154169383019390935260028301549082015260038083015460608301526004830154919291608084019160ff909116908111156112f0576112f0612ebd565b600381111561130157611301612ebd565b815260200160058201548152602001600682015481526020016007820154815250509050846001600160a01b031681600001516001600160a01b03160361136f576005828154811061135557611355613071565b906000526020600020906008020160030154925050611382565b508061137a81613087565b915050611261565b50811580159061139157508015155b61139a57600080fd5b60006113a4612af5565b905080612710146116455760006002886040516020016113c491906130a0565b60408051601f19818403018152908290526113de916130a0565b602060405180830381855afa1580156113fb573d6000803e3d6000fd5b5050506040513d601f19601f8201168201806040525081019061141e91906130bc565b9050600061142b89612bf3565b600381111561143c5761143c612ebd565b9050600081600381111561145257611452612ebd565b0361146e575050600a805461ff00191690555060009450611656565b60005b6005548110156116145760006005828154811061149057611490613071565b60009182526020918290206040805161010081018252600890930290910180546001600160a01b0390811684526001820154169383019390935260028301549082015260038083015460608301526004830154919291608084019160ff9091169081111561150057611500612ebd565b600381111561151157611511612ebd565b815260200160058201548152602001600682015481526020016007820154815250509050336001600160a01b031681600001516001600160a01b03160361160157838160600151036115fb57826005838154811061157157611571613071565b60009182526020909120600460089092020101805460ff1916600183600381111561159e5761159e612ebd565b02179055506115e16040518060400160405280601c81526020017f776f726b696e6720696e2072657665616c2d7375636365737366756c00000000815250612ab2565b6115fb8360038111156115f6576115f6612ebd565b6127f8565b50611614565b508061160c81613087565b915050611471565b50600a805482919061ff00191661010083600381111561163657611636612ebd565b02179055509650611656915050565b50600a805461ff0019169055600094505b50505050919050565b600060015460001461168b574261025860015461167c91906130d5565b6116869190613058565b905090565b5061025890565b6000805b60055481101561173657336001600160a01b0316600582815481106116bd576116bd613071565b60009182526020909120600890910201546001600160a01b0316036117245760006001600160a01b0316600582815481106116fa576116fa613071565b60009182526020909120600160089092020101546001600160a01b03161461172457600191505090565b8061172e81613087565b915050611696565b506000905090565b60008080805b6005548110156118525760006005828154811061176357611763613071565b60009182526020918290206040805161010081018252600890930290910180546001600160a01b0390811684526001820154169383019390935260028301549082015260038083015460608301526004830154919291608084019160ff909116908111156117d3576117d3612ebd565b60038111156117e4576117e4612ebd565b815260200160058201548152602001600682015481526020016007820154815250509050336001600160a01b031681600001516001600160a01b03160361183f578060200151925080604001518461183c91906130d5565b93505b508061184a81613087565b915050611744565b506001600160a01b0381161561196d5760005b60055481101561196b5760006005828154811061188457611884613071565b60009182526020918290206040805161010081018252600890930290910180546001600160a01b0390811684526001820154169383019390935260028301549082015260038083015460608301526004830154919291608084019160ff909116908111156118f4576118f4612ebd565b600381111561190557611905612ebd565b815260200160058201548152602001600682015481526020016007820154815250509050826001600160a01b031681600001516001600160a01b03160361195857604081015161195590856130d5565b93505b508061196381613087565b915050611865565b505b50919050565b600080808080805b600554811015611a9d5760006005828154811061199a5761199a613071565b60009182526020918290206040805161010081018252600890930290910180546001600160a01b0390811684526001820154169383019390935260028301549082015260038083015460608301526004830154919291608084019160ff90911690811115611a0a57611a0a612ebd565b6003811115611a1b57611a1b612ebd565b815260200160058201548152602001600682015481526020016007820154815250509050336001600160a01b031681600001516001600160a01b031603611a8a5780516020820151608083015191975095509350611a848460038111156115f6576115f6612ebd565b50611a9d565b5080611a9581613087565b91505061197b565b5060005b600554811015611ba057600060058281548110611ac057611ac0613071565b60009182526020918290206040805161010081018252600890930290910180546001600160a01b0390811684526001820154169383019390935260028301549082015260038083015460608301526004830154919291608084019160ff90911690811115611b3057611b30612ebd565b6003811115611b4157611b41612ebd565b815260200160058201548152602001600682015481526020016007820154815250509050846001600160a01b031681600001516001600160a01b031603611b8d57608001519150611ba0565b5080611b9881613087565b915050611aa1565b506000826003811115611bb557611bb5612ebd565b14158015611bd557506000816003811115611bd257611bd2612ebd565b14155b611bde57600080fd5b6000808080808080805b600554811015611cf757600060058281548110611c0757611c07613071565b60009182526020918290206040805161010081018252600890930290910180546001600160a01b0390811684526001820154169383019390935260028301549082015260038083015460608301526004830154919291608084019160ff90911690811115611c7757611c77612ebd565b6003811115611c8857611c88612ebd565b815260200160058201548152602001600682015481526020016007820154815250509050336001600160a01b031681600001516001600160a01b031603611ce45780516020820151608090920151995096509450925082611cf7565b5080611cef81613087565b915050611be8565b5060005b600554811015611dfd57600060058281548110611d1a57611d1a613071565b60009182526020918290206040805161010081018252600890930290910180546001600160a01b0390811684526001820154169383019390935260028301549082015260038083015460608301526004830154919291608084019160ff90911690811115611d8a57611d8a612ebd565b6003811115611d9b57611d9b612ebd565b815260200160058201548152602001600682015481526020016007820154815250509050856001600160a01b031681600001516001600160a01b031603611dea57608001519650915081611dfd565b5080611df581613087565b915050611cfb565b50856003811115611e1057611e10612ebd565b876003811115611e2257611e22612ebd565b03611e2f57506003611f1b565b6001876003811115611e4357611e43612ebd565b148015611e6157506003866003811115611e5f57611e5f612ebd565b145b80611e9957506002876003811115611e7b57611e7b612ebd565b148015611e9957506001866003811115611e9757611e97612ebd565b145b80611ed157506003876003811115611eb357611eb3612ebd565b148015611ed157506002866003811115611ecf57611ecf612ebd565b145b80611f0a57506000876003811115611eeb57611eeb612ebd565b14158015611f0a57506000866003811115611f0857611f08612ebd565b145b15611f1757506001611f1b565b5060025b8484611f2a8282878787612c74565b611f32612840565b600a805484919062ff0000191662010000836003811115611f5557611f55612ebd565b0217905550919c5050505050505050505050505090565b60008080805b6005548110156120c757600060058281548110611f9157611f91613071565b60009182526020918290206040805161010081018252600890930290910180546001600160a01b0390811684526001820154169383019390935260028301549082015260038083015460608301526004830154919291608084019160ff9091169081111561200157612001612ebd565b600381111561201257612012612ebd565b8152602001600582015481526020016006820154815260200160078201548152505090506120438160000151612a34565b6120508160200151612a34565b80516001600160a01b031633036120b45760208101516060820151909450600193506000036120b4576120a96040518060400160405280600f81526020016e796f75206469646e7420706c61793160881b815250612ab2565b600094505050505090565b50806120bf81613087565b915050611f72565b5080151560000361210657610f7a604051806040016040528060138152602001723cb7ba903234b2373a103932b3b4b9ba32b91960691b815250612ab2565b6000805b60055481101561224f5760006005828154811061212957612129613071565b60009182526020918290206040805161010081018252600890930290910180546001600160a01b0390811684526001820154169383019390935260028301549082015260038083015460608301526004830154919291608084019160ff9091169081111561219957612199612ebd565b60038111156121aa576121aa612ebd565b81526020016005820154815260200160068201548152602001600782015481525050905080600001516001600160a01b0316856001600160a01b03160361223c5760608101516001935060000361223c57612230604051806040016040528060148152602001736f70706f6e656e74206469646e7420706c61793360601b815250612ab2565b60009550505050505090565b508061224781613087565b91505061210a565b508015156000036122a2576122986040518060400160405280601881526020017f6f70706f6e656e74206469646e74207265676973746572340000000000000000815250612ab2565b6000935050505090565b6110bd60405180604001604052806008815260200167537563636573733560c01b815250612ab2565b60606009546001036122f55760405180606001604052806037815260200161319760379139905090565b60095460020361231d5760405180606001604052806027815260200161313a60279139905090565b90565b60008061232b612af5565b905080612710146123e95760006001600160a01b03166005828154811061235457612354613071565b60009182526020909120600160089092020101546001600160a01b0316148015906123a557506005818154811061238d5761238d613071565b9060005260206000209060080201600301546000801b145b156123e95782600582815481106123be576123be613071565b60009182526020909120600360089092020101555050600a805460ff19166001908117909155919050565b5050600a805460ff1916905550600090565b600a54606090610100900460ff16600381111561241a5761241a612ebd565b6000036124435750604080518082019091526007815266125b9d985b1a5960ca1b602082015290565b600a54610100900460ff16600381111561245f5761245f612ebd565b60010361248f575060408051808201909152600e81526d52657665616c65643a20526f636b60901b602082015290565b600a54610100900460ff1660038111156124ab576124ab612ebd565b6002036124dc575060408051808201909152600f81526e2932bb32b0b632b21d102830b832b960891b602082015290565b5060408051808201909152601281527152657665616c65643a2053636973736f727360701b602082015290565b600a5460609062010000900460ff16600381111561252957612529612ebd565b6000036125525750604080518082019091526007815266125b9d985b1a5960ca1b602082015290565b600a5462010000900460ff16600381111561256f5761256f612ebd565b60010361259d575060408051808201909152600c81526b283630bcb2b91018903bb7b760a11b602082015290565b600a5462010000900460ff1660038111156125ba576125ba612ebd565b6002036125e8575060408051808201909152600c81526b283630bcb2b91019103bb7b760a11b602082015290565b600a5462010000900460ff16600381111561260557612605612ebd565b60030361231d575060408051808201909152600a81526923b0b6b290223930bbb760b11b602082015290565b6000805b6005548110156127245760006005828154811061265457612654613071565b60009182526020918290206040805161010081018252600890930290910180546001600160a01b0390811684526001820154169383019390935260028301549082015260038083015460608301526004830154919291608084019160ff909116908111156126c4576126c4612ebd565b60038111156126d5576126d5612ebd565b8152600582015460208201526006820154604082015260079091015460609091015280519091506001600160a01b031633036127115750919050565b508061271c81613087565b915050612635565b50612710905090565b600a5460609060ff161515600103612777575060408051808201909152601c81527f5375636365737366756c6c792073746f72656420746865206d6f766500000000602082015290565b5060408051808201909152601d81527f4661696c656420746f2073746f72652074686520706c6179206d6f7665000000602082015290565b6127f482826040516024016127c59291906130e8565b60408051601f198184030181529190526020810180516001600160e01b03166309710a9d60e41b179052612e19565b5050565b61283d8160405160240161280e91815260200190565b60408051601f198184030181529190526020810180516001600160e01b031663f5b1bba960e01b179052612e19565b50565b6000806000805b6005548110156128d1576005818154811061286457612864613071565b60009182526020909120600890910201546001600160a01b031633036128bf576005818154811061289757612897613071565b60009182526020909120600160089092020101549093506001600160a01b03169050826128d1565b806128c981613087565b915050612847565b506001600160a01b03811615612a1c5760005b60055481101561293f576005818154811061290157612901613071565b60009182526020909120600890910201546001600160a01b039081169083160361292d5780925061293f565b8061293781613087565b9150506128e4565b506005838154811061295357612953613071565b60009182526020822060089091020180546001600160a01b031990811682556001820180549091169055600281018290556003810182905560048101805460ff191690556005808201839055600682018390556007909101919091558054839081106129c1576129c1613071565b60009182526020822060089091020180546001600160a01b031990811682556001820180549091169055600281018290556003810182905560048101805460ff19169055600581018290556006810182905560070155505050565b600583815481106129c1576129c1613071565b505050565b6040516001600160a01b038216602482015261283d9060440160408051601f198184030181529190526020810180516001600160e01b031663161765e160e11b179052612e19565b6040516001600160a01b0383169082156108fc029083906000818181858888f19350505050158015612a2f573d6000803e3d6000fd5b61283d81604051602401612ac69190612e8a565b60408051601f198184030181529190526020810180516001600160e01b031663104c13eb60e21b179052612e19565b6000805b60055481101561272457600060058281548110612b1857612b18613071565b60009182526020918290206040805161010081018252600890930290910180546001600160a01b0390811684526001820154169383019390935260028301549082015260038083015460608301526004830154919291608084019160ff90911690811115612b8857612b88612ebd565b6003811115612b9957612b99612ebd565b815260200160058201548152602001600682015481526020016007820154815250509050336001600160a01b031681600001516001600160a01b031603612be05750919050565b5080612beb81613087565b915050612af9565b60008082600081518110612c0957612c09613071565b01602001516001600160f81b0319169050603160f81b819003612c2f5750600192915050565b6001600160f81b03198116601960f91b03612c4d5750600292915050565b6001600160f81b03198116603360f81b03612c6b5750600392915050565b50600092915050565b6001816003811115612c8857612c88612ebd565b03612d1c57846001600160a01b03166108fc60058481548110612cad57612cad613071565b90600052602060002090600802016002015460058681548110612cd257612cd2613071565b906000526020600020906008020160020154612cee91906130d5565b6040518115909202916000818181858888f19350505050158015612d16573d6000803e3d6000fd5b50612e12565b6002816003811115612d3057612d30612ebd565b03612d5557836001600160a01b03166108fc60058481548110612cad57612cad613071565b846001600160a01b03166108fc60058581548110612d7557612d75613071565b9060005260206000209060080201600201549081150290604051600060405180830381858888f19350505050158015612db2573d6000803e3d6000fd5b50836001600160a01b03166108fc60058481548110612dd357612dd3613071565b9060005260206000209060080201600201549081150290604051600060405180830381858888f19350505050158015612e10573d6000803e3d6000fd5b505b5050505050565b80516a636f6e736f6c652e6c6f67602083016000808483855afa5050505050565b60005b83811015612e55578181015183820152602001612e3d565b50506000910152565b60008151808452612e76816020860160208601612e3a565b601f01601f19169290920160200192915050565b602081526000612e9d6020830184612e5e565b9392505050565b600060208284031215612eb657600080fd5b5035919050565b634e487b7160e01b600052602160045260246000fd5b6004811061283d57634e487b7160e01b600052602160045260246000fd5b6001600160a01b0389811682528816602082015260408101879052606081018690526101008101612f2186612ed3565b8560808301528460a08301528360c08301528260e08301529998505050505050505050565b634e487b7160e01b600052604160045260246000fd5b600060208284031215612f6e57600080fd5b813567ffffffffffffffff80821115612f8657600080fd5b818401915084601f830112612f9a57600080fd5b813581811115612fac57612fac612f46565b604051601f8201601f19908116603f01168101908382118183101715612fd457612fd4612f46565b81604052828152876020848701011115612fed57600080fd5b826020860160208301376000928101602001929092525095945050505050565b6020810161301a83612ed3565b91905290565b60008261303d57634e487b7160e01b600052601260045260246000fd5b500690565b634e487b7160e01b600052601160045260246000fd5b8181038181111561306b5761306b613042565b92915050565b634e487b7160e01b600052603260045260246000fd5b60006001820161309957613099613042565b5060010190565b600082516130b2818460208701612e3a565b9190910192915050565b6000602082840312156130ce57600080fd5b5051919050565b8082018082111561306b5761306b613042565b6040815260006130fb6040830185612e5e565b9050826020830152939250505056fe54696d656f7574202d2072657475726e6564207468652062616c616e63657320746f20796f7572206163636f756e74526567697374726174696f6e207375636365737366756c2e20506c6179207468652067616d652e54696d6564206f75742c206e6f206f70706f6e656e74206d6174636865642e205265747572696e6720796f7572206465706f7369742e526567697374726174696f6e205375636365737366756c2e205761697420666f7220746865206f70706f6e656e7420746f206a6f696e2ea2646970667358221220449dce3ab1a56ec368f9e3673f8b134bedb10d742754d904d4a768d81f788b8464736f6c63430008130033",
    "linkReferences": {}
  },
  "methodIdentifiers": {
    "BET_MIN()": "2626ab08",
    "REVEAL_TIMEOUT()": "3d6ae3a7",
    "bothPlayed()": "807c8504",
    "bothRevealed()": "43445ca8",
    "checkTimeout_register()": "2fc75113",
    "getContractBalance()": "6f9fb98a",
    "getFinalOutput()": "da46cc2d",
    "getOutcome()": "7e7e4b47",
    "getPlayOutput()": "ee198ce0",
    "getRegisterValue()": "9d245719",
    "getRevealOutput()": "d347c04c",
    "initialBet()": "1d73c64c",
    "listOfPlayers(uint256)": "3f061259",
    "opponentJoined()": "5afe0dd5",
    "play(bytes32)": "c7a1865b",
    "register()": "1aa3a008",
    "reveal(string)": "4c261247",
    "revealTimeLeft()": "51dcb1c3",
    "timeout()": "70dea79a",
    "whoAmI()": "da91254c"
  },
  "id": 17
}